{
  "_format": "hh-sol-artifact-1",
  "contractName": "Ticket",
  "sourceName": "src/Contract/contracts/Ticket.sol",
  "abi": [
    {
      "inputs": [],
      "stateMutability": "nonpayable",
      "type": "constructor"
    },
    {
      "anonymous": false,
      "inputs": [
        {
          "indexed": true,
          "internalType": "address",
          "name": "account",
          "type": "address"
        },
        {
          "indexed": true,
          "internalType": "address",
          "name": "operator",
          "type": "address"
        },
        {
          "indexed": false,
          "internalType": "bool",
          "name": "approved",
          "type": "bool"
        }
      ],
      "name": "ApprovalForAll",
      "type": "event"
    },
    {
      "anonymous": false,
      "inputs": [
        {
          "indexed": true,
          "internalType": "uint256",
          "name": "token",
          "type": "uint256"
        },
        {
          "components": [
            {
              "internalType": "uint256",
              "name": "tokenId",
              "type": "uint256"
            },
            {
              "internalType": "address",
              "name": "addr",
              "type": "address"
            },
            {
              "internalType": "uint256",
              "name": "tickets",
              "type": "uint256"
            }
          ],
          "indexed": false,
          "internalType": "struct Ticket.Buyer",
          "name": "buyer",
          "type": "tuple"
        }
      ],
      "name": "Buy",
      "type": "event"
    },
    {
      "anonymous": false,
      "inputs": [
        {
          "indexed": true,
          "internalType": "uint256",
          "name": "id",
          "type": "uint256"
        },
        {
          "components": [
            {
              "internalType": "uint256",
              "name": "tokenId",
              "type": "uint256"
            },
            {
              "internalType": "string",
              "name": "tokenURI",
              "type": "string"
            },
            {
              "internalType": "uint256",
              "name": "tickets",
              "type": "uint256"
            },
            {
              "internalType": "uint256",
              "name": "price",
              "type": "uint256"
            },
            {
              "internalType": "address",
              "name": "owner",
              "type": "address"
            }
          ],
          "indexed": false,
          "internalType": "struct Ticket.Event",
          "name": "_event",
          "type": "tuple"
        }
      ],
      "name": "EventCreated",
      "type": "event"
    },
    {
      "anonymous": false,
      "inputs": [
        {
          "indexed": true,
          "internalType": "address",
          "name": "operator",
          "type": "address"
        },
        {
          "indexed": true,
          "internalType": "address",
          "name": "from",
          "type": "address"
        },
        {
          "indexed": true,
          "internalType": "address",
          "name": "to",
          "type": "address"
        },
        {
          "indexed": false,
          "internalType": "uint256[]",
          "name": "ids",
          "type": "uint256[]"
        },
        {
          "indexed": false,
          "internalType": "uint256[]",
          "name": "values",
          "type": "uint256[]"
        }
      ],
      "name": "TransferBatch",
      "type": "event"
    },
    {
      "anonymous": false,
      "inputs": [
        {
          "indexed": true,
          "internalType": "address",
          "name": "operator",
          "type": "address"
        },
        {
          "indexed": true,
          "internalType": "address",
          "name": "from",
          "type": "address"
        },
        {
          "indexed": true,
          "internalType": "address",
          "name": "to",
          "type": "address"
        },
        {
          "indexed": false,
          "internalType": "uint256",
          "name": "id",
          "type": "uint256"
        },
        {
          "indexed": false,
          "internalType": "uint256",
          "name": "value",
          "type": "uint256"
        }
      ],
      "name": "TransferSingle",
      "type": "event"
    },
    {
      "anonymous": false,
      "inputs": [
        {
          "indexed": false,
          "internalType": "string",
          "name": "value",
          "type": "string"
        },
        {
          "indexed": true,
          "internalType": "uint256",
          "name": "id",
          "type": "uint256"
        }
      ],
      "name": "URI",
      "type": "event"
    },
    {
      "inputs": [
        {
          "internalType": "string",
          "name": "_tokenURI",
          "type": "string"
        },
        {
          "internalType": "uint256",
          "name": "_tickets",
          "type": "uint256"
        },
        {
          "internalType": "uint256",
          "name": "_price",
          "type": "uint256"
        }
      ],
      "name": "CreateEvent",
      "outputs": [],
      "stateMutability": "nonpayable",
      "type": "function"
    },
    {
      "inputs": [
        {
          "internalType": "address",
          "name": "account",
          "type": "address"
        },
        {
          "internalType": "uint256",
          "name": "id",
          "type": "uint256"
        }
      ],
      "name": "balanceOf",
      "outputs": [
        {
          "internalType": "uint256",
          "name": "",
          "type": "uint256"
        }
      ],
      "stateMutability": "view",
      "type": "function"
    },
    {
      "inputs": [
        {
          "internalType": "address[]",
          "name": "accounts",
          "type": "address[]"
        },
        {
          "internalType": "uint256[]",
          "name": "ids",
          "type": "uint256[]"
        }
      ],
      "name": "balanceOfBatch",
      "outputs": [
        {
          "internalType": "uint256[]",
          "name": "",
          "type": "uint256[]"
        }
      ],
      "stateMutability": "view",
      "type": "function"
    },
    {
      "inputs": [
        {
          "internalType": "uint256",
          "name": "_tickets",
          "type": "uint256"
        },
        {
          "internalType": "uint256",
          "name": "_tokenId",
          "type": "uint256"
        }
      ],
      "name": "buyTicket",
      "outputs": [],
      "stateMutability": "payable",
      "type": "function"
    },
    {
      "inputs": [
        {
          "internalType": "uint256",
          "name": "_tokenId",
          "type": "uint256"
        }
      ],
      "name": "checkAvailableTickets",
      "outputs": [
        {
          "internalType": "uint256",
          "name": "",
          "type": "uint256"
        }
      ],
      "stateMutability": "view",
      "type": "function"
    },
    {
      "inputs": [],
      "name": "getAllEvents",
      "outputs": [
        {
          "components": [
            {
              "internalType": "uint256",
              "name": "tokenId",
              "type": "uint256"
            },
            {
              "internalType": "string",
              "name": "tokenURI",
              "type": "string"
            },
            {
              "internalType": "uint256",
              "name": "tickets",
              "type": "uint256"
            },
            {
              "internalType": "uint256",
              "name": "price",
              "type": "uint256"
            },
            {
              "internalType": "address",
              "name": "owner",
              "type": "address"
            }
          ],
          "internalType": "struct Ticket.Event[]",
          "name": "",
          "type": "tuple[]"
        }
      ],
      "stateMutability": "view",
      "type": "function"
    },
    {
      "inputs": [
        {
          "internalType": "uint256",
          "name": "_tokenId",
          "type": "uint256"
        }
      ],
      "name": "getBuyers",
      "outputs": [
        {
          "components": [
            {
              "internalType": "uint256",
              "name": "tokenId",
              "type": "uint256"
            },
            {
              "internalType": "address",
              "name": "addr",
              "type": "address"
            },
            {
              "internalType": "uint256",
              "name": "tickets",
              "type": "uint256"
            }
          ],
          "internalType": "struct Ticket.Buyer[]",
          "name": "",
          "type": "tuple[]"
        }
      ],
      "stateMutability": "view",
      "type": "function"
    },
    {
      "inputs": [
        {
          "internalType": "uint256",
          "name": "_tokenId",
          "type": "uint256"
        }
      ],
      "name": "getEvent",
      "outputs": [
        {
          "components": [
            {
              "internalType": "uint256",
              "name": "tokenId",
              "type": "uint256"
            },
            {
              "internalType": "string",
              "name": "tokenURI",
              "type": "string"
            },
            {
              "internalType": "uint256",
              "name": "tickets",
              "type": "uint256"
            },
            {
              "internalType": "uint256",
              "name": "price",
              "type": "uint256"
            },
            {
              "internalType": "address",
              "name": "owner",
              "type": "address"
            }
          ],
          "internalType": "struct Ticket.Event",
          "name": "",
          "type": "tuple"
        }
      ],
      "stateMutability": "view",
      "type": "function"
    },
    {
      "inputs": [
        {
          "internalType": "address",
          "name": "account",
          "type": "address"
        },
        {
          "internalType": "address",
          "name": "operator",
          "type": "address"
        }
      ],
      "name": "isApprovedForAll",
      "outputs": [
        {
          "internalType": "bool",
          "name": "",
          "type": "bool"
        }
      ],
      "stateMutability": "view",
      "type": "function"
    },
    {
      "inputs": [],
      "name": "s_nftId",
      "outputs": [
        {
          "internalType": "uint256",
          "name": "_value",
          "type": "uint256"
        }
      ],
      "stateMutability": "view",
      "type": "function"
    },
    {
      "inputs": [
        {
          "internalType": "address",
          "name": "from",
          "type": "address"
        },
        {
          "internalType": "address",
          "name": "to",
          "type": "address"
        },
        {
          "internalType": "uint256[]",
          "name": "ids",
          "type": "uint256[]"
        },
        {
          "internalType": "uint256[]",
          "name": "amounts",
          "type": "uint256[]"
        },
        {
          "internalType": "bytes",
          "name": "data",
          "type": "bytes"
        }
      ],
      "name": "safeBatchTransferFrom",
      "outputs": [],
      "stateMutability": "nonpayable",
      "type": "function"
    },
    {
      "inputs": [
        {
          "internalType": "address",
          "name": "from",
          "type": "address"
        },
        {
          "internalType": "address",
          "name": "to",
          "type": "address"
        },
        {
          "internalType": "uint256",
          "name": "id",
          "type": "uint256"
        },
        {
          "internalType": "uint256",
          "name": "amount",
          "type": "uint256"
        },
        {
          "internalType": "bytes",
          "name": "data",
          "type": "bytes"
        }
      ],
      "name": "safeTransferFrom",
      "outputs": [],
      "stateMutability": "nonpayable",
      "type": "function"
    },
    {
      "inputs": [
        {
          "internalType": "address",
          "name": "operator",
          "type": "address"
        },
        {
          "internalType": "bool",
          "name": "approved",
          "type": "bool"
        }
      ],
      "name": "setApprovalForAll",
      "outputs": [],
      "stateMutability": "nonpayable",
      "type": "function"
    },
    {
      "inputs": [
        {
          "internalType": "bytes4",
          "name": "interfaceId",
          "type": "bytes4"
        }
      ],
      "name": "supportsInterface",
      "outputs": [
        {
          "internalType": "bool",
          "name": "",
          "type": "bool"
        }
      ],
      "stateMutability": "view",
      "type": "function"
    },
    {
      "inputs": [
        {
          "internalType": "uint256",
          "name": "",
          "type": "uint256"
        }
      ],
      "name": "uri",
      "outputs": [
        {
          "internalType": "string",
          "name": "",
          "type": "string"
        }
      ],
      "stateMutability": "view",
      "type": "function"
    }
  ],
  "bytecode": "0x60806040523480156200001157600080fd5b506040518060200160405280600081525062000033816200003a60201b60201c565b506200016b565b80600290805190602001906200005292919062000056565b5050565b828054620000649062000106565b90600052602060002090601f016020900481019282620000885760008555620000d4565b82601f10620000a357805160ff1916838001178555620000d4565b82800160010185558215620000d4579182015b82811115620000d3578251825591602001919060010190620000b6565b5b509050620000e39190620000e7565b5090565b5b8082111562000102576000816000905550600101620000e8565b5090565b600060028204905060018216806200011f57607f821691505b602082108114156200013657620001356200013c565b5b50919050565b7f4e487b7100000000000000000000000000000000000000000000000000000000600052602260045260246000fd5b613d4d806200017b6000396000f3fe6080604052600436106100e75760003560e01c80634e1273f41161008a578063a22cb46511610059578063a22cb46514610330578063c27a500d14610359578063e985e9c514610384578063f242432a146103c1576100e7565b80634e1273f41461023c5780636d1884e0146102795780637feafd20146102b65780638d44d121146102f3576100e7565b8063163f41af116100c6578063163f41af146101a357806326848f1a146101cc578063298ec208146101f75780632eb2c2d614610213576100e7565b8062fdd58e146100ec57806301ffc9a7146101295780630e89341c14610166575b600080fd5b3480156100f857600080fd5b50610113600480360381019061010e9190612719565b6103ea565b6040516101209190613280565b60405180910390f35b34801561013557600080fd5b50610150600480360381019061014b91906127c1565b6104b3565b60405161015d9190613026565b60405180910390f35b34801561017257600080fd5b5061018d6004803603810190610188919061287a565b610595565b60405161019a9190613041565b60405180910390f35b3480156101af57600080fd5b506101ca60048036038101906101c59190612813565b610629565b005b3480156101d857600080fd5b506101e161087e565b6040516101ee9190613280565b60405180910390f35b610211600480360381019061020c91906128a3565b61088a565b005b34801561021f57600080fd5b5061023a6004803603810190610235919061258f565b610c23565b005b34801561024857600080fd5b50610263600480360381019061025e9190612755565b610cc4565b6040516102709190612fcd565b60405180910390f35b34801561028557600080fd5b506102a0600480360381019061029b919061287a565b610e75565b6040516102ad919061325e565b60405180910390f35b3480156102c257600080fd5b506102dd60048036038101906102d8919061287a565b610fa8565b6040516102ea9190612f89565b60405180910390f35b3480156102ff57600080fd5b5061031a6004803603810190610315919061287a565b611084565b6040516103279190613280565b60405180910390f35b34801561033c57600080fd5b50610357600480360381019061035291906126dd565b6110d1565b005b34801561036557600080fd5b5061036e6110e7565b60405161037b9190612fab565b60405180910390f35b34801561039057600080fd5b506103ab60048036038101906103a69190612553565b61124c565b6040516103b89190613026565b60405180910390f35b3480156103cd57600080fd5b506103e860048036038101906103e3919061264e565b6112e0565b005b60008073ffffffffffffffffffffffffffffffffffffffff168373ffffffffffffffffffffffffffffffffffffffff16141561045b576040517f08c379a0000000000000000000000000000000000000000000000000000000008152600401610452906130a3565b60405180910390fd5b60008083815260200190815260200160002060008473ffffffffffffffffffffffffffffffffffffffff1673ffffffffffffffffffffffffffffffffffffffff16815260200190815260200160002054905092915050565b60007fd9b67a26000000000000000000000000000000000000000000000000000000007bffffffffffffffffffffffffffffffffffffffffffffffffffffffff1916827bffffffffffffffffffffffffffffffffffffffffffffffffffffffff1916148061057e57507f0e89341c000000000000000000000000000000000000000000000000000000007bffffffffffffffffffffffffffffffffffffffffffffffffffffffff1916827bffffffffffffffffffffffffffffffffffffffffffffffffffffffff1916145b8061058e575061058d82611381565b5b9050919050565b6060600280546105a490613631565b80601f01602080910402602001604051908101604052809291908181526020018280546105d090613631565b801561061d5780601f106105f25761010080835404028352916020019161061d565b820191906000526020600020905b81548152906001019060200180831161060057829003601f168201915b50505050509050919050565b61063360036113eb565b600061063f6003611401565b9050600060046000838152602001908152602001600020600001541461069a576040517f08c379a000000000000000000000000000000000000000000000000000000000815260040161069190613223565b60405180910390fd5b60006040518060a001604052808381526020018681526020018581526020018481526020013373ffffffffffffffffffffffffffffffffffffffff1681525090508060046000848152602001908152602001600020600082015181600001556020820151816001019080519060200190610715929190612206565b50604082015181600201556060820151816003015560808201518160040160006101000a81548173ffffffffffffffffffffffffffffffffffffffff021916908373ffffffffffffffffffffffffffffffffffffffff16021790555090505061078f3383866040518060200160405280600081525061140f565b60058190806001815401808255809150506001900390600052602060002090600502016000909190919091506000820151816000015560208201518160010190805190602001906107e1929190612206565b50604082015181600201556060820151816003015560808201518160040160006101000a81548173ffffffffffffffffffffffffffffffffffffffff021916908373ffffffffffffffffffffffffffffffffffffffff1602179055505050817f5a5d0a2e57772300c856dd763cae7bad495ba5fdfc284931dc61b6c7e91a4c0e8260405161086f919061325e565b60405180910390a25050505050565b60038060000154905081565b6000600460008381526020019081526020016000206040518060a0016040529081600082015481526020016001820180546108c490613631565b80601f01602080910402602001604051908101604052809291908181526020018280546108f090613631565b801561093d5780601f106109125761010080835404028352916020019161093d565b820191906000526020600020905b81548152906001019060200180831161092057829003601f168201915b5050505050815260200160028201548152602001600382015481526020016004820160009054906101000a900473ffffffffffffffffffffffffffffffffffffffff1673ffffffffffffffffffffffffffffffffffffffff1673ffffffffffffffffffffffffffffffffffffffff16815250509050600060046000848152602001908152602001600020600001541415610a0c576040517f08c379a0000000000000000000000000000000000000000000000000000000008152600401610a0390613103565b60405180910390fd5b6000610a1783611084565b1415610a58576040517f08c379a0000000000000000000000000000000000000000000000000000000008152600401610a4f906130c3565b60405180910390fd5b34838260600151610a6991906134ed565b14610aa9576040517f08c379a0000000000000000000000000000000000000000000000000000000008152600401610aa0906130e3565b60405180910390fd5b6000816080015190508073ffffffffffffffffffffffffffffffffffffffff166108fc349081150290604051600060405180830381858888f19350505050158015610af8573d6000803e3d6000fd5b50610b1581338587604051806020016040528060008152506115c0565b600060405180606001604052808581526020013373ffffffffffffffffffffffffffffffffffffffff168152602001868152509050600660008581526020019081526020016000208190806001815401808255809150506001900390600052602060002090600302016000909190919091506000820151816000015560208201518160010160006101000a81548173ffffffffffffffffffffffffffffffffffffffff021916908373ffffffffffffffffffffffffffffffffffffffff160217905550604082015181600201555050837f034130d921a5318b50c5c1f0f95fe851f6865fc396aa75f39e98c261965a488982604051610c149190613243565b60405180910390a25050505050565b610c2b61185c565b73ffffffffffffffffffffffffffffffffffffffff168573ffffffffffffffffffffffffffffffffffffffff161480610c715750610c7085610c6b61185c565b61124c565b5b610cb0576040517f08c379a0000000000000000000000000000000000000000000000000000000008152600401610ca790613163565b60405180910390fd5b610cbd8585858585611864565b5050505050565b60608151835114610d0a576040517f08c379a0000000000000000000000000000000000000000000000000000000008152600401610d01906131c3565b60405180910390fd5b6000835167ffffffffffffffff811115610d4d577f4e487b7100000000000000000000000000000000000000000000000000000000600052604160045260246000fd5b604051908082528060200260200182016040528015610d7b5781602001602082028036833780820191505090505b50905060005b8451811015610e6a57610e14858281518110610dc6577f4e487b7100000000000000000000000000000000000000000000000000000000600052603260045260246000fd5b6020026020010151858381518110610e07577f4e487b7100000000000000000000000000000000000000000000000000000000600052603260045260246000fd5b60200260200101516103ea565b828281518110610e4d577f4e487b7100000000000000000000000000000000000000000000000000000000600052603260045260246000fd5b60200260200101818152505080610e6390613694565b9050610d81565b508091505092915050565b610e7d61228c565b600460008381526020019081526020016000206040518060a001604052908160008201548152602001600182018054610eb590613631565b80601f0160208091040260200160405190810160405280929190818152602001828054610ee190613631565b8015610f2e5780601f10610f0357610100808354040283529160200191610f2e565b820191906000526020600020905b815481529060010190602001808311610f1157829003601f168201915b5050505050815260200160028201548152602001600382015481526020016004820160009054906101000a900473ffffffffffffffffffffffffffffffffffffffff1673ffffffffffffffffffffffffffffffffffffffff1673ffffffffffffffffffffffffffffffffffffffff16815250509050919050565b606060066000838152602001908152602001600020805480602002602001604051908101604052809291908181526020016000905b828210156110795783829060005260206000209060030201604051806060016040529081600082015481526020016001820160009054906101000a900473ffffffffffffffffffffffffffffffffffffffff1673ffffffffffffffffffffffffffffffffffffffff1673ffffffffffffffffffffffffffffffffffffffff16815260200160028201548152505081526020019060010190610fdd565b505050509050919050565b60008061109083610fa8565b5160046000858152602001908152602001600020600201546110b29190613547565b905060008111156110c657809150506110cc565b60009150505b919050565b6110e36110dc61185c565b8383611bd2565b5050565b60606005805480602002602001604051908101604052809291908181526020016000905b8282101561124357838290600052602060002090600502016040518060a00160405290816000820154815260200160018201805461114890613631565b80601f016020809104026020016040519081016040528092919081815260200182805461117490613631565b80156111c15780601f10611196576101008083540402835291602001916111c1565b820191906000526020600020905b8154815290600101906020018083116111a457829003601f168201915b5050505050815260200160028201548152602001600382015481526020016004820160009054906101000a900473ffffffffffffffffffffffffffffffffffffffff1673ffffffffffffffffffffffffffffffffffffffff1673ffffffffffffffffffffffffffffffffffffffff16815250508152602001906001019061110b565b50505050905090565b6000600160008473ffffffffffffffffffffffffffffffffffffffff1673ffffffffffffffffffffffffffffffffffffffff16815260200190815260200160002060008373ffffffffffffffffffffffffffffffffffffffff1673ffffffffffffffffffffffffffffffffffffffff16815260200190815260200160002060009054906101000a900460ff16905092915050565b6112e861185c565b73ffffffffffffffffffffffffffffffffffffffff168573ffffffffffffffffffffffffffffffffffffffff16148061132e575061132d8561132861185c565b61124c565b5b61136d576040517f08c379a000000000000000000000000000000000000000000000000000000000815260040161136490613123565b60405180910390fd5b61137a85858585856115c0565b5050505050565b60007f01ffc9a7000000000000000000000000000000000000000000000000000000007bffffffffffffffffffffffffffffffffffffffffffffffffffffffff1916827bffffffffffffffffffffffffffffffffffffffffffffffffffffffff1916149050919050565b6001816000016000828254019250508190555050565b600081600001549050919050565b600073ffffffffffffffffffffffffffffffffffffffff168473ffffffffffffffffffffffffffffffffffffffff16141561147f576040517f08c379a000000000000000000000000000000000000000000000000000000000815260040161147690613203565b60405180910390fd5b600061148961185c565b9050600061149685611d3f565b905060006114a385611d3f565b90506114b483600089858589611e05565b8460008088815260200190815260200160002060008973ffffffffffffffffffffffffffffffffffffffff1673ffffffffffffffffffffffffffffffffffffffff16815260200190815260200160002060008282546115139190613497565b925050819055508673ffffffffffffffffffffffffffffffffffffffff16600073ffffffffffffffffffffffffffffffffffffffff168473ffffffffffffffffffffffffffffffffffffffff167fc3d58168c5ae7397731d063d5bbf3d657854427343f4c083240f7aacaa2d0f62898960405161159192919061329b565b60405180910390a46115a883600089858589611e0d565b6115b783600089898989611e15565b50505050505050565b600073ffffffffffffffffffffffffffffffffffffffff168473ffffffffffffffffffffffffffffffffffffffff161415611630576040517f08c379a000000000000000000000000000000000000000000000000000000000815260040161162790613143565b60405180910390fd5b600061163a61185c565b9050600061164785611d3f565b9050600061165485611d3f565b9050611664838989858589611e05565b600080600088815260200190815260200160002060008a73ffffffffffffffffffffffffffffffffffffffff1673ffffffffffffffffffffffffffffffffffffffff168152602001908152602001600020549050858110156116fb576040517f08c379a00000000000000000000000000000000000000000000000000000000081526004016116f290613183565b60405180910390fd5b85810360008089815260200190815260200160002060008b73ffffffffffffffffffffffffffffffffffffffff1673ffffffffffffffffffffffffffffffffffffffff168152602001908152602001600020819055508560008089815260200190815260200160002060008a73ffffffffffffffffffffffffffffffffffffffff1673ffffffffffffffffffffffffffffffffffffffff16815260200190815260200160002060008282546117b09190613497565b925050819055508773ffffffffffffffffffffffffffffffffffffffff168973ffffffffffffffffffffffffffffffffffffffff168573ffffffffffffffffffffffffffffffffffffffff167fc3d58168c5ae7397731d063d5bbf3d657854427343f4c083240f7aacaa2d0f628a8a60405161182d92919061329b565b60405180910390a4611843848a8a86868a611e0d565b611851848a8a8a8a8a611e15565b505050505050505050565b600033905090565b81518351146118a8576040517f08c379a000000000000000000000000000000000000000000000000000000000815260040161189f906131e3565b60405180910390fd5b600073ffffffffffffffffffffffffffffffffffffffff168473ffffffffffffffffffffffffffffffffffffffff161415611918576040517f08c379a000000000000000000000000000000000000000000000000000000000815260040161190f90613143565b60405180910390fd5b600061192261185c565b9050611932818787878787611e05565b60005b8451811015611b2f576000858281518110611979577f4e487b7100000000000000000000000000000000000000000000000000000000600052603260045260246000fd5b6020026020010151905060008583815181106119be577f4e487b7100000000000000000000000000000000000000000000000000000000600052603260045260246000fd5b60200260200101519050600080600084815260200190815260200160002060008b73ffffffffffffffffffffffffffffffffffffffff1673ffffffffffffffffffffffffffffffffffffffff16815260200190815260200160002054905081811015611a5f576040517f08c379a0000000000000000000000000000000000000000000000000000000008152600401611a5690613183565b60405180910390fd5b81810360008085815260200190815260200160002060008c73ffffffffffffffffffffffffffffffffffffffff1673ffffffffffffffffffffffffffffffffffffffff168152602001908152602001600020819055508160008085815260200190815260200160002060008b73ffffffffffffffffffffffffffffffffffffffff1673ffffffffffffffffffffffffffffffffffffffff1681526020019081526020016000206000828254611b149190613497565b9250508190555050505080611b2890613694565b9050611935565b508473ffffffffffffffffffffffffffffffffffffffff168673ffffffffffffffffffffffffffffffffffffffff168273ffffffffffffffffffffffffffffffffffffffff167f4a39dc06d4c0dbc64b70af90fd698a233a518aa5d07e595d983b8c0526c8f7fb8787604051611ba6929190612fef565b60405180910390a4611bbc818787878787611e0d565b611bca818787878787611ffc565b505050505050565b8173ffffffffffffffffffffffffffffffffffffffff168373ffffffffffffffffffffffffffffffffffffffff161415611c41576040517f08c379a0000000000000000000000000000000000000000000000000000000008152600401611c38906131a3565b60405180910390fd5b80600160008573ffffffffffffffffffffffffffffffffffffffff1673ffffffffffffffffffffffffffffffffffffffff16815260200190815260200160002060008473ffffffffffffffffffffffffffffffffffffffff1673ffffffffffffffffffffffffffffffffffffffff16815260200190815260200160002060006101000a81548160ff0219169083151502179055508173ffffffffffffffffffffffffffffffffffffffff168373ffffffffffffffffffffffffffffffffffffffff167f17307eab39ab6107e8899845ad3d59bd9653f200f220920489ca2b5937696c3183604051611d329190613026565b60405180910390a3505050565b60606000600167ffffffffffffffff811115611d84577f4e487b7100000000000000000000000000000000000000000000000000000000600052604160045260246000fd5b604051908082528060200260200182016040528015611db25781602001602082028036833780820191505090505b5090508281600081518110611df0577f4e487b7100000000000000000000000000000000000000000000000000000000600052603260045260246000fd5b60200260200101818152505080915050919050565b505050505050565b505050505050565b611e348473ffffffffffffffffffffffffffffffffffffffff166121e3565b15611ff4578373ffffffffffffffffffffffffffffffffffffffff1663f23a6e6187878686866040518663ffffffff1660e01b8152600401611e7a959493929190612f2f565b602060405180830381600087803b158015611e9457600080fd5b505af1925050508015611ec557506040513d601f19601f82011682018060405250810190611ec291906127ea565b60015b611f6b57611ed161376a565b806308c379a01415611f2e5750611ee6613c25565b80611ef15750611f30565b806040517f08c379a0000000000000000000000000000000000000000000000000000000008152600401611f259190613041565b60405180910390fd5b505b6040517f08c379a0000000000000000000000000000000000000000000000000000000008152600401611f6290613063565b60405180910390fd5b63f23a6e6160e01b7bffffffffffffffffffffffffffffffffffffffffffffffffffffffff1916817bffffffffffffffffffffffffffffffffffffffffffffffffffffffff191614611ff2576040517f08c379a0000000000000000000000000000000000000000000000000000000008152600401611fe990613083565b60405180910390fd5b505b505050505050565b61201b8473ffffffffffffffffffffffffffffffffffffffff166121e3565b156121db578373ffffffffffffffffffffffffffffffffffffffff1663bc197c8187878686866040518663ffffffff1660e01b8152600401612061959493929190612ec7565b602060405180830381600087803b15801561207b57600080fd5b505af19250505080156120ac57506040513d601f19601f820116820180604052508101906120a991906127ea565b60015b612152576120b861376a565b806308c379a0141561211557506120cd613c25565b806120d85750612117565b806040517f08c379a000000000000000000000000000000000000000000000000000000000815260040161210c9190613041565b60405180910390fd5b505b6040517f08c379a000000000000000000000000000000000000000000000000000000000815260040161214990613063565b60405180910390fd5b63bc197c8160e01b7bffffffffffffffffffffffffffffffffffffffffffffffffffffffff1916817bffffffffffffffffffffffffffffffffffffffffffffffffffffffff1916146121d9576040517f08c379a00000000000000000000000000000000000000000000000000000000081526004016121d090613083565b60405180910390fd5b505b505050505050565b6000808273ffffffffffffffffffffffffffffffffffffffff163b119050919050565b82805461221290613631565b90600052602060002090601f016020900481019282612234576000855561227b565b82601f1061224d57805160ff191683800117855561227b565b8280016001018555821561227b579182015b8281111561227a57825182559160200191906001019061225f565b5b50905061228891906122d1565b5090565b6040518060a0016040528060008152602001606081526020016000815260200160008152602001600073ffffffffffffffffffffffffffffffffffffffff1681525090565b5b808211156122ea5760008160009055506001016122d2565b5090565b60006123016122fc846132e9565b6132c4565b9050808382526020820190508285602086028201111561232057600080fd5b60005b8581101561235057816123368882612442565b845260208401935060208301925050600181019050612323565b5050509392505050565b600061236d61236884613315565b6132c4565b9050808382526020820190508285602086028201111561238c57600080fd5b60005b858110156123bc57816123a2888261253e565b84526020840193506020830192505060018101905061238f565b5050509392505050565b60006123d96123d484613341565b6132c4565b9050828152602081018484840111156123f157600080fd5b6123fc8482856135ef565b509392505050565b600061241761241284613372565b6132c4565b90508281526020810184848401111561242f57600080fd5b61243a8482856135ef565b509392505050565b60008135905061245181613cbb565b92915050565b600082601f83011261246857600080fd5b81356124788482602086016122ee565b91505092915050565b600082601f83011261249257600080fd5b81356124a284826020860161235a565b91505092915050565b6000813590506124ba81613cd2565b92915050565b6000813590506124cf81613ce9565b92915050565b6000815190506124e481613ce9565b92915050565b600082601f8301126124fb57600080fd5b813561250b8482602086016123c6565b91505092915050565b600082601f83011261252557600080fd5b8135612535848260208601612404565b91505092915050565b60008135905061254d81613d00565b92915050565b6000806040838503121561256657600080fd5b600061257485828601612442565b925050602061258585828601612442565b9150509250929050565b600080600080600060a086880312156125a757600080fd5b60006125b588828901612442565b95505060206125c688828901612442565b945050604086013567ffffffffffffffff8111156125e357600080fd5b6125ef88828901612481565b935050606086013567ffffffffffffffff81111561260c57600080fd5b61261888828901612481565b925050608086013567ffffffffffffffff81111561263557600080fd5b612641888289016124ea565b9150509295509295909350565b600080600080600060a0868803121561266657600080fd5b600061267488828901612442565b955050602061268588828901612442565b94505060406126968882890161253e565b93505060606126a78882890161253e565b925050608086013567ffffffffffffffff8111156126c457600080fd5b6126d0888289016124ea565b9150509295509295909350565b600080604083850312156126f057600080fd5b60006126fe85828601612442565b925050602061270f858286016124ab565b9150509250929050565b6000806040838503121561272c57600080fd5b600061273a85828601612442565b925050602061274b8582860161253e565b9150509250929050565b6000806040838503121561276857600080fd5b600083013567ffffffffffffffff81111561278257600080fd5b61278e85828601612457565b925050602083013567ffffffffffffffff8111156127ab57600080fd5b6127b785828601612481565b9150509250929050565b6000602082840312156127d357600080fd5b60006127e1848285016124c0565b91505092915050565b6000602082840312156127fc57600080fd5b600061280a848285016124d5565b91505092915050565b60008060006060848603121561282857600080fd5b600084013567ffffffffffffffff81111561284257600080fd5b61284e86828701612514565b935050602061285f8682870161253e565b92505060406128708682870161253e565b9150509250925092565b60006020828403121561288c57600080fd5b600061289a8482850161253e565b91505092915050565b600080604083850312156128b657600080fd5b60006128c48582860161253e565b92505060206128d58582860161253e565b9150509250929050565b60006128eb8383612d39565b60608301905092915050565b60006129038383612dbd565b905092915050565b60006129178383612ea9565b60208301905092915050565b61292c8161357b565b82525050565b61293b8161357b565b82525050565b600061294c826133d3565b6129568185613431565b9350612961836133a3565b8060005b8381101561299257815161297988826128df565b97506129848361340a565b925050600181019050612965565b5085935050505092915050565b60006129aa826133de565b6129b48185613442565b9350836020820285016129c6856133b3565b8060005b85811015612a0257848403895281516129e385826128f7565b94506129ee83613417565b925060208a019950506001810190506129ca565b50829750879550505050505092915050565b6000612a1f826133e9565b612a298185613453565b9350612a34836133c3565b8060005b83811015612a65578151612a4c888261290b565b9750612a5783613424565b925050600181019050612a38565b5085935050505092915050565b612a7b8161358d565b82525050565b6000612a8c826133f4565b612a968185613464565b9350612aa68185602086016135fe565b612aaf8161378c565b840191505092915050565b6000612ac5826133ff565b612acf8185613475565b9350612adf8185602086016135fe565b612ae88161378c565b840191505092915050565b6000612afe826133ff565b612b088185613486565b9350612b188185602086016135fe565b612b218161378c565b840191505092915050565b6000612b39603483613486565b9150612b44826137aa565b604082019050919050565b6000612b5c602883613486565b9150612b67826137f9565b604082019050919050565b6000612b7f602b83613486565b9150612b8a82613848565b604082019050919050565b6000612ba2601d83613486565b9150612bad82613897565b602082019050919050565b6000612bc5602583613486565b9150612bd0826138c0565b604082019050919050565b6000612be8602e83613486565b9150612bf38261390f565b604082019050919050565b6000612c0b602983613486565b9150612c168261395e565b604082019050919050565b6000612c2e602583613486565b9150612c39826139ad565b604082019050919050565b6000612c51603283613486565b9150612c5c826139fc565b604082019050919050565b6000612c74602a83613486565b9150612c7f82613a4b565b604082019050919050565b6000612c97602983613486565b9150612ca282613a9a565b604082019050919050565b6000612cba602983613486565b9150612cc582613ae9565b604082019050919050565b6000612cdd602883613486565b9150612ce882613b38565b604082019050919050565b6000612d00602183613486565b9150612d0b82613b87565b604082019050919050565b6000612d23602b83613486565b9150612d2e82613bd6565b604082019050919050565b606082016000820151612d4f6000850182612ea9565b506020820151612d626020850182612923565b506040820151612d756040850182612ea9565b50505050565b606082016000820151612d916000850182612ea9565b506020820151612da46020850182612923565b506040820151612db76040850182612ea9565b50505050565b600060a083016000830151612dd56000860182612ea9565b5060208301518482036020860152612ded8282612aba565b9150506040830151612e026040860182612ea9565b506060830151612e156060860182612ea9565b506080830151612e286080860182612923565b508091505092915050565b600060a083016000830151612e4b6000860182612ea9565b5060208301518482036020860152612e638282612aba565b9150506040830151612e786040860182612ea9565b506060830151612e8b6060860182612ea9565b506080830151612e9e6080860182612923565b508091505092915050565b612eb2816135e5565b82525050565b612ec1816135e5565b82525050565b600060a082019050612edc6000830188612932565b612ee96020830187612932565b8181036040830152612efb8186612a14565b90508181036060830152612f0f8185612a14565b90508181036080830152612f238184612a81565b90509695505050505050565b600060a082019050612f446000830188612932565b612f516020830187612932565b612f5e6040830186612eb8565b612f6b6060830185612eb8565b8181036080830152612f7d8184612a81565b90509695505050505050565b60006020820190508181036000830152612fa38184612941565b905092915050565b60006020820190508181036000830152612fc5818461299f565b905092915050565b60006020820190508181036000830152612fe78184612a14565b905092915050565b600060408201905081810360008301526130098185612a14565b9050818103602083015261301d8184612a14565b90509392505050565b600060208201905061303b6000830184612a72565b92915050565b6000602082019050818103600083015261305b8184612af3565b905092915050565b6000602082019050818103600083015261307c81612b2c565b9050919050565b6000602082019050818103600083015261309c81612b4f565b9050919050565b600060208201905081810360008301526130bc81612b72565b9050919050565b600060208201905081810360008301526130dc81612b95565b9050919050565b600060208201905081810360008301526130fc81612bb8565b9050919050565b6000602082019050818103600083015261311c81612bdb565b9050919050565b6000602082019050818103600083015261313c81612bfe565b9050919050565b6000602082019050818103600083015261315c81612c21565b9050919050565b6000602082019050818103600083015261317c81612c44565b9050919050565b6000602082019050818103600083015261319c81612c67565b9050919050565b600060208201905081810360008301526131bc81612c8a565b9050919050565b600060208201905081810360008301526131dc81612cad565b9050919050565b600060208201905081810360008301526131fc81612cd0565b9050919050565b6000602082019050818103600083015261321c81612cf3565b9050919050565b6000602082019050818103600083015261323c81612d16565b9050919050565b60006060820190506132586000830184612d7b565b92915050565b600060208201905081810360008301526132788184612e33565b905092915050565b60006020820190506132956000830184612eb8565b92915050565b60006040820190506132b06000830185612eb8565b6132bd6020830184612eb8565b9392505050565b60006132ce6132df565b90506132da8282613663565b919050565b6000604051905090565b600067ffffffffffffffff8211156133045761330361373b565b5b602082029050602081019050919050565b600067ffffffffffffffff8211156133305761332f61373b565b5b602082029050602081019050919050565b600067ffffffffffffffff82111561335c5761335b61373b565b5b6133658261378c565b9050602081019050919050565b600067ffffffffffffffff82111561338d5761338c61373b565b5b6133968261378c565b9050602081019050919050565b6000819050602082019050919050565b6000819050602082019050919050565b6000819050602082019050919050565b600081519050919050565b600081519050919050565b600081519050919050565b600081519050919050565b600081519050919050565b6000602082019050919050565b6000602082019050919050565b6000602082019050919050565b600082825260208201905092915050565b600082825260208201905092915050565b600082825260208201905092915050565b600082825260208201905092915050565b600082825260208201905092915050565b600082825260208201905092915050565b60006134a2826135e5565b91506134ad836135e5565b9250827fffffffffffffffffffffffffffffffffffffffffffffffffffffffffffffffff038211156134e2576134e16136dd565b5b828201905092915050565b60006134f8826135e5565b9150613503836135e5565b9250817fffffffffffffffffffffffffffffffffffffffffffffffffffffffffffffffff048311821515161561353c5761353b6136dd565b5b828202905092915050565b6000613552826135e5565b915061355d836135e5565b9250828210156135705761356f6136dd565b5b828203905092915050565b6000613586826135c5565b9050919050565b60008115159050919050565b60007fffffffff0000000000000000000000000000000000000000000000000000000082169050919050565b600073ffffffffffffffffffffffffffffffffffffffff82169050919050565b6000819050919050565b82818337600083830152505050565b60005b8381101561361c578082015181840152602081019050613601565b8381111561362b576000848401525b50505050565b6000600282049050600182168061364957607f821691505b6020821081141561365d5761365c61370c565b5b50919050565b61366c8261378c565b810181811067ffffffffffffffff8211171561368b5761368a61373b565b5b80604052505050565b600061369f826135e5565b91507fffffffffffffffffffffffffffffffffffffffffffffffffffffffffffffffff8214156136d2576136d16136dd565b5b600182019050919050565b7f4e487b7100000000000000000000000000000000000000000000000000000000600052601160045260246000fd5b7f4e487b7100000000000000000000000000000000000000000000000000000000600052602260045260246000fd5b7f4e487b7100000000000000000000000000000000000000000000000000000000600052604160045260246000fd5b600060033d11156137895760046000803e61378660005161379d565b90505b90565b6000601f19601f8301169050919050565b60008160e01c9050919050565b7f455243313135353a207472616e7366657220746f206e6f6e204552433131353560008201527f526563656976657220696d706c656d656e746572000000000000000000000000602082015250565b7f455243313135353a204552433131353552656365697665722072656a6563746560008201527f6420746f6b656e73000000000000000000000000000000000000000000000000602082015250565b7f455243313135353a2062616c616e636520717565727920666f7220746865207a60008201527f65726f2061646472657373000000000000000000000000000000000000000000602082015250565b7f455243313135353a205469636b6574732061726520736f6c64206f7574000000600082015250565b7f455243313135353a20496e73756669656e742066756e6420746f20627579207460008201527f69636b6574000000000000000000000000000000000000000000000000000000602082015250565b7f455243313135353a206576656e74206973206e6f742061766169626c6520776960008201527f746820676976656e20746f6b656e000000000000000000000000000000000000602082015250565b7f455243313135353a2063616c6c6572206973206e6f74206f776e6572206e6f7260008201527f20617070726f7665640000000000000000000000000000000000000000000000602082015250565b7f455243313135353a207472616e7366657220746f20746865207a65726f20616460008201527f6472657373000000000000000000000000000000000000000000000000000000602082015250565b7f455243313135353a207472616e736665722063616c6c6572206973206e6f742060008201527f6f776e6572206e6f7220617070726f7665640000000000000000000000000000602082015250565b7f455243313135353a20696e73756666696369656e742062616c616e636520666f60008201527f72207472616e7366657200000000000000000000000000000000000000000000602082015250565b7f455243313135353a2073657474696e6720617070726f76616c2073746174757360008201527f20666f722073656c660000000000000000000000000000000000000000000000602082015250565b7f455243313135353a206163636f756e747320616e6420696473206c656e67746860008201527f206d69736d617463680000000000000000000000000000000000000000000000602082015250565b7f455243313135353a2069647320616e6420616d6f756e7473206c656e6774682060008201527f6d69736d61746368000000000000000000000000000000000000000000000000602082015250565b7f455243313135353a206d696e7420746f20746865207a65726f2061646472657360008201527f7300000000000000000000000000000000000000000000000000000000000000602082015250565b7f455243313135353a206576656e74416c7265616479204578697374207769746860008201527f207468697320746f6b656e000000000000000000000000000000000000000000602082015250565b600060443d1015613c3557613cb8565b613c3d6132df565b60043d036004823e80513d602482011167ffffffffffffffff82111715613c65575050613cb8565b808201805167ffffffffffffffff811115613c835750505050613cb8565b80602083010160043d038501811115613ca0575050505050613cb8565b613caf82602001850186613663565b82955050505050505b90565b613cc48161357b565b8114613ccf57600080fd5b50565b613cdb8161358d565b8114613ce657600080fd5b50565b613cf281613599565b8114613cfd57600080fd5b50565b613d09816135e5565b8114613d1457600080fd5b5056fea26469706673582212208210cd5a74805f047ea02c0f1e35a492b491cabe0af19a0092ca418d785c552364736f6c63430008040033",
  "linkReferences": {},
  "deployedLinkReferences": {}
}