{
  "_format": "hh-sol-artifact-1",
  "contractName": "Ticket",
  "sourceName": "src/Contract/contracts/Ticket.sol",
  "abi": [
    {
      "inputs": [],
      "stateMutability": "nonpayable",
      "type": "constructor"
    },
    {
      "anonymous": false,
      "inputs": [
        {
          "indexed": true,
          "internalType": "address",
          "name": "account",
          "type": "address"
        },
        {
          "indexed": true,
          "internalType": "address",
          "name": "operator",
          "type": "address"
        },
        {
          "indexed": false,
          "internalType": "bool",
          "name": "approved",
          "type": "bool"
        }
      ],
      "name": "ApprovalForAll",
      "type": "event"
    },
    {
      "anonymous": false,
      "inputs": [
        {
          "indexed": true,
          "internalType": "uint256",
          "name": "token",
          "type": "uint256"
        },
        {
          "components": [
            {
              "internalType": "uint256",
              "name": "tokenId",
              "type": "uint256"
            },
            {
              "internalType": "address",
              "name": "addr",
              "type": "address"
            },
            {
              "internalType": "uint256",
              "name": "tickets",
              "type": "uint256"
            }
          ],
          "indexed": false,
          "internalType": "struct Ticket.Buyer",
          "name": "buyer",
          "type": "tuple"
        }
      ],
      "name": "Buy",
      "type": "event"
    },
    {
      "anonymous": false,
      "inputs": [
        {
          "indexed": true,
          "internalType": "uint256",
          "name": "id",
          "type": "uint256"
        },
        {
          "components": [
            {
              "internalType": "uint256",
              "name": "tokenId",
              "type": "uint256"
            },
            {
              "internalType": "string",
              "name": "tokenURI",
              "type": "string"
            },
            {
              "internalType": "uint256",
              "name": "tickets",
              "type": "uint256"
            },
            {
              "internalType": "uint256",
              "name": "price",
              "type": "uint256"
            },
            {
              "internalType": "address",
              "name": "owner",
              "type": "address"
            }
          ],
          "indexed": false,
          "internalType": "struct Ticket.Event",
          "name": "_event",
          "type": "tuple"
        }
      ],
      "name": "EventCreated",
      "type": "event"
    },
    {
      "anonymous": false,
      "inputs": [
        {
          "indexed": true,
          "internalType": "address",
          "name": "operator",
          "type": "address"
        },
        {
          "indexed": true,
          "internalType": "address",
          "name": "from",
          "type": "address"
        },
        {
          "indexed": true,
          "internalType": "address",
          "name": "to",
          "type": "address"
        },
        {
          "indexed": false,
          "internalType": "uint256[]",
          "name": "ids",
          "type": "uint256[]"
        },
        {
          "indexed": false,
          "internalType": "uint256[]",
          "name": "values",
          "type": "uint256[]"
        }
      ],
      "name": "TransferBatch",
      "type": "event"
    },
    {
      "anonymous": false,
      "inputs": [
        {
          "indexed": true,
          "internalType": "address",
          "name": "operator",
          "type": "address"
        },
        {
          "indexed": true,
          "internalType": "address",
          "name": "from",
          "type": "address"
        },
        {
          "indexed": true,
          "internalType": "address",
          "name": "to",
          "type": "address"
        },
        {
          "indexed": false,
          "internalType": "uint256",
          "name": "id",
          "type": "uint256"
        },
        {
          "indexed": false,
          "internalType": "uint256",
          "name": "value",
          "type": "uint256"
        }
      ],
      "name": "TransferSingle",
      "type": "event"
    },
    {
      "anonymous": false,
      "inputs": [
        {
          "indexed": false,
          "internalType": "string",
          "name": "value",
          "type": "string"
        },
        {
          "indexed": true,
          "internalType": "uint256",
          "name": "id",
          "type": "uint256"
        }
      ],
      "name": "URI",
      "type": "event"
    },
    {
      "inputs": [
        {
          "internalType": "string",
          "name": "_tokenURI",
          "type": "string"
        },
        {
          "internalType": "uint256",
          "name": "_tickets",
          "type": "uint256"
        },
        {
          "internalType": "uint256",
          "name": "_price",
          "type": "uint256"
        }
      ],
      "name": "CreateEvent",
      "outputs": [],
      "stateMutability": "nonpayable",
      "type": "function"
    },
    {
      "inputs": [
        {
          "internalType": "address",
          "name": "account",
          "type": "address"
        },
        {
          "internalType": "uint256",
          "name": "id",
          "type": "uint256"
        }
      ],
      "name": "balanceOf",
      "outputs": [
        {
          "internalType": "uint256",
          "name": "",
          "type": "uint256"
        }
      ],
      "stateMutability": "view",
      "type": "function"
    },
    {
      "inputs": [
        {
          "internalType": "address[]",
          "name": "accounts",
          "type": "address[]"
        },
        {
          "internalType": "uint256[]",
          "name": "ids",
          "type": "uint256[]"
        }
      ],
      "name": "balanceOfBatch",
      "outputs": [
        {
          "internalType": "uint256[]",
          "name": "",
          "type": "uint256[]"
        }
      ],
      "stateMutability": "view",
      "type": "function"
    },
    {
      "inputs": [
        {
          "internalType": "uint256",
          "name": "_tickets",
          "type": "uint256"
        },
        {
          "internalType": "uint256",
          "name": "_tokenId",
          "type": "uint256"
        }
      ],
      "name": "buyTicket",
      "outputs": [],
      "stateMutability": "payable",
      "type": "function"
    },
    {
      "inputs": [
        {
          "internalType": "uint256",
          "name": "_tokenId",
          "type": "uint256"
        }
      ],
      "name": "checkAvailableTickets",
      "outputs": [
        {
          "internalType": "uint256",
          "name": "",
          "type": "uint256"
        }
      ],
      "stateMutability": "view",
      "type": "function"
    },
    {
      "inputs": [],
      "name": "getAllEvents",
      "outputs": [
        {
          "components": [
            {
              "internalType": "uint256",
              "name": "tokenId",
              "type": "uint256"
            },
            {
              "internalType": "string",
              "name": "tokenURI",
              "type": "string"
            },
            {
              "internalType": "uint256",
              "name": "tickets",
              "type": "uint256"
            },
            {
              "internalType": "uint256",
              "name": "price",
              "type": "uint256"
            },
            {
              "internalType": "address",
              "name": "owner",
              "type": "address"
            }
          ],
          "internalType": "struct Ticket.Event[]",
          "name": "",
          "type": "tuple[]"
        }
      ],
      "stateMutability": "view",
      "type": "function"
    },
    {
      "inputs": [
        {
          "internalType": "uint256",
          "name": "_tokenId",
          "type": "uint256"
        }
      ],
      "name": "getBuyers",
      "outputs": [
        {
          "components": [
            {
              "internalType": "uint256",
              "name": "tokenId",
              "type": "uint256"
            },
            {
              "internalType": "address",
              "name": "addr",
              "type": "address"
            },
            {
              "internalType": "uint256",
              "name": "tickets",
              "type": "uint256"
            }
          ],
          "internalType": "struct Ticket.Buyer[]",
          "name": "",
          "type": "tuple[]"
        }
      ],
      "stateMutability": "view",
      "type": "function"
    },
    {
      "inputs": [
        {
          "internalType": "uint256",
          "name": "_tokenId",
          "type": "uint256"
        }
      ],
      "name": "getEvent",
      "outputs": [
        {
          "components": [
            {
              "internalType": "uint256",
              "name": "tokenId",
              "type": "uint256"
            },
            {
              "internalType": "string",
              "name": "tokenURI",
              "type": "string"
            },
            {
              "internalType": "uint256",
              "name": "tickets",
              "type": "uint256"
            },
            {
              "internalType": "uint256",
              "name": "price",
              "type": "uint256"
            },
            {
              "internalType": "address",
              "name": "owner",
              "type": "address"
            }
          ],
          "internalType": "struct Ticket.Event",
          "name": "",
          "type": "tuple"
        }
      ],
      "stateMutability": "view",
      "type": "function"
    },
    {
      "inputs": [
        {
          "internalType": "address",
          "name": "account",
          "type": "address"
        },
        {
          "internalType": "address",
          "name": "operator",
          "type": "address"
        }
      ],
      "name": "isApprovedForAll",
      "outputs": [
        {
          "internalType": "bool",
          "name": "",
          "type": "bool"
        }
      ],
      "stateMutability": "view",
      "type": "function"
    },
    {
      "inputs": [],
      "name": "s_nftId",
      "outputs": [
        {
          "internalType": "uint256",
          "name": "_value",
          "type": "uint256"
        }
      ],
      "stateMutability": "view",
      "type": "function"
    },
    {
      "inputs": [
        {
          "internalType": "address",
          "name": "from",
          "type": "address"
        },
        {
          "internalType": "address",
          "name": "to",
          "type": "address"
        },
        {
          "internalType": "uint256[]",
          "name": "ids",
          "type": "uint256[]"
        },
        {
          "internalType": "uint256[]",
          "name": "amounts",
          "type": "uint256[]"
        },
        {
          "internalType": "bytes",
          "name": "data",
          "type": "bytes"
        }
      ],
      "name": "safeBatchTransferFrom",
      "outputs": [],
      "stateMutability": "nonpayable",
      "type": "function"
    },
    {
      "inputs": [
        {
          "internalType": "address",
          "name": "from",
          "type": "address"
        },
        {
          "internalType": "address",
          "name": "to",
          "type": "address"
        },
        {
          "internalType": "uint256",
          "name": "id",
          "type": "uint256"
        },
        {
          "internalType": "uint256",
          "name": "amount",
          "type": "uint256"
        },
        {
          "internalType": "bytes",
          "name": "data",
          "type": "bytes"
        }
      ],
      "name": "safeTransferFrom",
      "outputs": [],
      "stateMutability": "nonpayable",
      "type": "function"
    },
    {
      "inputs": [
        {
          "internalType": "address",
          "name": "operator",
          "type": "address"
        },
        {
          "internalType": "bool",
          "name": "approved",
          "type": "bool"
        }
      ],
      "name": "setApprovalForAll",
      "outputs": [],
      "stateMutability": "nonpayable",
      "type": "function"
    },
    {
      "inputs": [
        {
          "internalType": "uint256",
          "name": "",
          "type": "uint256"
        }
      ],
      "name": "sold",
      "outputs": [
        {
          "internalType": "uint256",
          "name": "",
          "type": "uint256"
        }
      ],
      "stateMutability": "view",
      "type": "function"
    },
    {
      "inputs": [
        {
          "internalType": "bytes4",
          "name": "interfaceId",
          "type": "bytes4"
        }
      ],
      "name": "supportsInterface",
      "outputs": [
        {
          "internalType": "bool",
          "name": "",
          "type": "bool"
        }
      ],
      "stateMutability": "view",
      "type": "function"
    },
    {
      "inputs": [
        {
          "internalType": "uint256",
          "name": "_tokenId",
          "type": "uint256"
        }
      ],
      "name": "uri",
      "outputs": [
        {
          "internalType": "string",
          "name": "",
          "type": "string"
        }
      ],
      "stateMutability": "view",
      "type": "function"
    }
  ],
  "bytecode": "0x60806040523480156200001157600080fd5b506040518060200160405280600081525062000033816200003a60201b60201c565b506200016b565b80600290805190602001906200005292919062000056565b5050565b828054620000649062000106565b90600052602060002090601f016020900481019282620000885760008555620000d4565b82601f10620000a357805160ff1916838001178555620000d4565b82800160010185558215620000d4579182015b82811115620000d3578251825591602001919060010190620000b6565b5b509050620000e39190620000e7565b5090565b5b8082111562000102576000816000905550600101620000e8565b5090565b600060028204905060018216806200011f57607f821691505b602082108114156200013657620001356200013c565b5b50919050565b7f4e487b7100000000000000000000000000000000000000000000000000000000600052602260045260246000fd5b613df5806200017b6000396000f3fe6080604052600436106100f25760003560e01c80636d1884e01161008a578063a22cb46511610059578063a22cb46514610378578063c27a500d146103a1578063e985e9c5146103cc578063f242432a14610409576100f2565b80636d1884e0146102845780637feafd20146102c15780638d44d121146102fe5780639c03facb1461033b576100f2565b806326848f1a116100c657806326848f1a146101d7578063298ec208146102025780632eb2c2d61461021e5780634e1273f414610247576100f2565b8062fdd58e146100f757806301ffc9a7146101345780630e89341c14610171578063163f41af146101ae575b600080fd5b34801561010357600080fd5b5061011e600480360381019061011991906127c1565b610432565b60405161012b9190613328565b60405180910390f35b34801561014057600080fd5b5061015b60048036038101906101569190612869565b6104fb565b60405161016891906130ce565b60405180910390f35b34801561017d57600080fd5b5061019860048036038101906101939190612922565b6105dd565b6040516101a591906130e9565b60405180910390f35b3480156101ba57600080fd5b506101d560048036038101906101d091906128bb565b610685565b005b3480156101e357600080fd5b506101ec6108da565b6040516101f99190613328565b60405180910390f35b61021c6004803603810190610217919061294b565b6108e6565b005b34801561022a57600080fd5b5061024560048036038101906102409190612637565b610ca9565b005b34801561025357600080fd5b5061026e600480360381019061026991906127fd565b610d4a565b60405161027b9190613075565b60405180910390f35b34801561029057600080fd5b506102ab60048036038101906102a69190612922565b610efb565b6040516102b89190613306565b60405180910390f35b3480156102cd57600080fd5b506102e860048036038101906102e39190612922565b61102e565b6040516102f59190613031565b60405180910390f35b34801561030a57600080fd5b5061032560048036038101906103209190612922565b61110a565b6040516103329190613328565b60405180910390f35b34801561034757600080fd5b50610362600480360381019061035d9190612922565b611161565b60405161036f9190613328565b60405180910390f35b34801561038457600080fd5b5061039f600480360381019061039a9190612785565b611179565b005b3480156103ad57600080fd5b506103b661118f565b6040516103c39190613053565b60405180910390f35b3480156103d857600080fd5b506103f360048036038101906103ee91906125fb565b6112f4565b60405161040091906130ce565b60405180910390f35b34801561041557600080fd5b50610430600480360381019061042b91906126f6565b611388565b005b60008073ffffffffffffffffffffffffffffffffffffffff168373ffffffffffffffffffffffffffffffffffffffff1614156104a3576040517f08c379a000000000000000000000000000000000000000000000000000000000815260040161049a9061314b565b60405180910390fd5b60008083815260200190815260200160002060008473ffffffffffffffffffffffffffffffffffffffff1673ffffffffffffffffffffffffffffffffffffffff16815260200190815260200160002054905092915050565b60007fd9b67a26000000000000000000000000000000000000000000000000000000007bffffffffffffffffffffffffffffffffffffffffffffffffffffffff1916827bffffffffffffffffffffffffffffffffffffffffffffffffffffffff191614806105c657507f0e89341c000000000000000000000000000000000000000000000000000000007bffffffffffffffffffffffffffffffffffffffffffffffffffffffff1916827bffffffffffffffffffffffffffffffffffffffffffffffffffffffff1916145b806105d657506105d582611429565b5b9050919050565b6060600460008381526020019081526020016000206001018054610600906136d9565b80601f016020809104026020016040519081016040528092919081815260200182805461062c906136d9565b80156106795780601f1061064e57610100808354040283529160200191610679565b820191906000526020600020905b81548152906001019060200180831161065c57829003601f168201915b50505050509050919050565b61068f6003611493565b600061069b60036114a9565b905060006004600083815260200190815260200160002060000154146106f6576040517f08c379a00000000000000000000000000000000000000000000000000000000081526004016106ed906132cb565b60405180910390fd5b60006040518060a001604052808381526020018681526020018581526020018481526020013373ffffffffffffffffffffffffffffffffffffffff16815250905080600460008481526020019081526020016000206000820151816000015560208201518160010190805190602001906107719291906122ae565b50604082015181600201556060820151816003015560808201518160040160006101000a81548173ffffffffffffffffffffffffffffffffffffffff021916908373ffffffffffffffffffffffffffffffffffffffff1602179055509050506107eb338386604051806020016040528060008152506114b7565b600581908060018154018082558091505060019003906000526020600020906005020160009091909190915060008201518160000155602082015181600101908051906020019061083d9291906122ae565b50604082015181600201556060820151816003015560808201518160040160006101000a81548173ffffffffffffffffffffffffffffffffffffffff021916908373ffffffffffffffffffffffffffffffffffffffff1602179055505050817f5a5d0a2e57772300c856dd763cae7bad495ba5fdfc284931dc61b6c7e91a4c0e826040516108cb9190613306565b60405180910390a25050505050565b60038060000154905081565b6000600460008381526020019081526020016000206040518060a001604052908160008201548152602001600182018054610920906136d9565b80601f016020809104026020016040519081016040528092919081815260200182805461094c906136d9565b80156109995780601f1061096e57610100808354040283529160200191610999565b820191906000526020600020905b81548152906001019060200180831161097c57829003601f168201915b5050505050815260200160028201548152602001600382015481526020016004820160009054906101000a900473ffffffffffffffffffffffffffffffffffffffff1673ffffffffffffffffffffffffffffffffffffffff1673ffffffffffffffffffffffffffffffffffffffff16815250509050600060046000848152602001908152602001600020600001541415610a68576040517f08c379a0000000000000000000000000000000000000000000000000000000008152600401610a5f906131ab565b60405180910390fd5b6000610a738361110a565b1415610ab4576040517f08c379a0000000000000000000000000000000000000000000000000000000008152600401610aab9061316b565b60405180910390fd5b34838260600151610ac59190613595565b14610b05576040517f08c379a0000000000000000000000000000000000000000000000000000000008152600401610afc9061318b565b60405180910390fd5b6000816080015190508073ffffffffffffffffffffffffffffffffffffffff166108fc349081150290604051600060405180830381858888f19350505050158015610b54573d6000803e3d6000fd5b50610b718133858760405180602001604052806000815250611668565b600060405180606001604052808581526020013373ffffffffffffffffffffffffffffffffffffffff168152602001868152509050600660008581526020019081526020016000208190806001815401808255809150506001900390600052602060002090600302016000909190919091506000820151816000015560208201518160010160006101000a81548173ffffffffffffffffffffffffffffffffffffffff021916908373ffffffffffffffffffffffffffffffffffffffff16021790555060408201518160020155505084600760008681526020019081526020016000206000828254610c63919061353f565b92505081905550837f034130d921a5318b50c5c1f0f95fe851f6865fc396aa75f39e98c261965a488982604051610c9a91906132eb565b60405180910390a25050505050565b610cb1611904565b73ffffffffffffffffffffffffffffffffffffffff168573ffffffffffffffffffffffffffffffffffffffff161480610cf75750610cf685610cf1611904565b6112f4565b5b610d36576040517f08c379a0000000000000000000000000000000000000000000000000000000008152600401610d2d9061320b565b60405180910390fd5b610d43858585858561190c565b5050505050565b60608151835114610d90576040517f08c379a0000000000000000000000000000000000000000000000000000000008152600401610d879061326b565b60405180910390fd5b6000835167ffffffffffffffff811115610dd3577f4e487b7100000000000000000000000000000000000000000000000000000000600052604160045260246000fd5b604051908082528060200260200182016040528015610e015781602001602082028036833780820191505090505b50905060005b8451811015610ef057610e9a858281518110610e4c577f4e487b7100000000000000000000000000000000000000000000000000000000600052603260045260246000fd5b6020026020010151858381518110610e8d577f4e487b7100000000000000000000000000000000000000000000000000000000600052603260045260246000fd5b6020026020010151610432565b828281518110610ed3577f4e487b7100000000000000000000000000000000000000000000000000000000600052603260045260246000fd5b60200260200101818152505080610ee99061373c565b9050610e07565b508091505092915050565b610f03612334565b600460008381526020019081526020016000206040518060a001604052908160008201548152602001600182018054610f3b906136d9565b80601f0160208091040260200160405190810160405280929190818152602001828054610f67906136d9565b8015610fb45780601f10610f8957610100808354040283529160200191610fb4565b820191906000526020600020905b815481529060010190602001808311610f9757829003601f168201915b5050505050815260200160028201548152602001600382015481526020016004820160009054906101000a900473ffffffffffffffffffffffffffffffffffffffff1673ffffffffffffffffffffffffffffffffffffffff1673ffffffffffffffffffffffffffffffffffffffff16815250509050919050565b606060066000838152602001908152602001600020805480602002602001604051908101604052809291908181526020016000905b828210156110ff5783829060005260206000209060030201604051806060016040529081600082015481526020016001820160009054906101000a900473ffffffffffffffffffffffffffffffffffffffff1673ffffffffffffffffffffffffffffffffffffffff1673ffffffffffffffffffffffffffffffffffffffff16815260200160028201548152505081526020019060010190611063565b505050509050919050565b6000806007600084815260200190815260200160002054600460008581526020019081526020016000206002015461114291906135ef565b90506000811115611156578091505061115c565b60009150505b919050565b60076020528060005260406000206000915090505481565b61118b611184611904565b8383611c7a565b5050565b60606005805480602002602001604051908101604052809291908181526020016000905b828210156112eb57838290600052602060002090600502016040518060a0016040529081600082015481526020016001820180546111f0906136d9565b80601f016020809104026020016040519081016040528092919081815260200182805461121c906136d9565b80156112695780601f1061123e57610100808354040283529160200191611269565b820191906000526020600020905b81548152906001019060200180831161124c57829003601f168201915b5050505050815260200160028201548152602001600382015481526020016004820160009054906101000a900473ffffffffffffffffffffffffffffffffffffffff1673ffffffffffffffffffffffffffffffffffffffff1673ffffffffffffffffffffffffffffffffffffffff1681525050815260200190600101906111b3565b50505050905090565b6000600160008473ffffffffffffffffffffffffffffffffffffffff1673ffffffffffffffffffffffffffffffffffffffff16815260200190815260200160002060008373ffffffffffffffffffffffffffffffffffffffff1673ffffffffffffffffffffffffffffffffffffffff16815260200190815260200160002060009054906101000a900460ff16905092915050565b611390611904565b73ffffffffffffffffffffffffffffffffffffffff168573ffffffffffffffffffffffffffffffffffffffff1614806113d657506113d5856113d0611904565b6112f4565b5b611415576040517f08c379a000000000000000000000000000000000000000000000000000000000815260040161140c906131cb565b60405180910390fd5b6114228585858585611668565b5050505050565b60007f01ffc9a7000000000000000000000000000000000000000000000000000000007bffffffffffffffffffffffffffffffffffffffffffffffffffffffff1916827bffffffffffffffffffffffffffffffffffffffffffffffffffffffff1916149050919050565b6001816000016000828254019250508190555050565b600081600001549050919050565b600073ffffffffffffffffffffffffffffffffffffffff168473ffffffffffffffffffffffffffffffffffffffff161415611527576040517f08c379a000000000000000000000000000000000000000000000000000000000815260040161151e906132ab565b60405180910390fd5b6000611531611904565b9050600061153e85611de7565b9050600061154b85611de7565b905061155c83600089858589611ead565b8460008088815260200190815260200160002060008973ffffffffffffffffffffffffffffffffffffffff1673ffffffffffffffffffffffffffffffffffffffff16815260200190815260200160002060008282546115bb919061353f565b925050819055508673ffffffffffffffffffffffffffffffffffffffff16600073ffffffffffffffffffffffffffffffffffffffff168473ffffffffffffffffffffffffffffffffffffffff167fc3d58168c5ae7397731d063d5bbf3d657854427343f4c083240f7aacaa2d0f628989604051611639929190613343565b60405180910390a461165083600089858589611eb5565b61165f83600089898989611ebd565b50505050505050565b600073ffffffffffffffffffffffffffffffffffffffff168473ffffffffffffffffffffffffffffffffffffffff1614156116d8576040517f08c379a00000000000000000000000000000000000000000000000000000000081526004016116cf906131eb565b60405180910390fd5b60006116e2611904565b905060006116ef85611de7565b905060006116fc85611de7565b905061170c838989858589611ead565b600080600088815260200190815260200160002060008a73ffffffffffffffffffffffffffffffffffffffff1673ffffffffffffffffffffffffffffffffffffffff168152602001908152602001600020549050858110156117a3576040517f08c379a000000000000000000000000000000000000000000000000000000000815260040161179a9061322b565b60405180910390fd5b85810360008089815260200190815260200160002060008b73ffffffffffffffffffffffffffffffffffffffff1673ffffffffffffffffffffffffffffffffffffffff168152602001908152602001600020819055508560008089815260200190815260200160002060008a73ffffffffffffffffffffffffffffffffffffffff1673ffffffffffffffffffffffffffffffffffffffff1681526020019081526020016000206000828254611858919061353f565b925050819055508773ffffffffffffffffffffffffffffffffffffffff168973ffffffffffffffffffffffffffffffffffffffff168573ffffffffffffffffffffffffffffffffffffffff167fc3d58168c5ae7397731d063d5bbf3d657854427343f4c083240f7aacaa2d0f628a8a6040516118d5929190613343565b60405180910390a46118eb848a8a86868a611eb5565b6118f9848a8a8a8a8a611ebd565b505050505050505050565b600033905090565b8151835114611950576040517f08c379a00000000000000000000000000000000000000000000000000000000081526004016119479061328b565b60405180910390fd5b600073ffffffffffffffffffffffffffffffffffffffff168473ffffffffffffffffffffffffffffffffffffffff1614156119c0576040517f08c379a00000000000000000000000000000000000000000000000000000000081526004016119b7906131eb565b60405180910390fd5b60006119ca611904565b90506119da818787878787611ead565b60005b8451811015611bd7576000858281518110611a21577f4e487b7100000000000000000000000000000000000000000000000000000000600052603260045260246000fd5b602002602001015190506000858381518110611a66577f4e487b7100000000000000000000000000000000000000000000000000000000600052603260045260246000fd5b60200260200101519050600080600084815260200190815260200160002060008b73ffffffffffffffffffffffffffffffffffffffff1673ffffffffffffffffffffffffffffffffffffffff16815260200190815260200160002054905081811015611b07576040517f08c379a0000000000000000000000000000000000000000000000000000000008152600401611afe9061322b565b60405180910390fd5b81810360008085815260200190815260200160002060008c73ffffffffffffffffffffffffffffffffffffffff1673ffffffffffffffffffffffffffffffffffffffff168152602001908152602001600020819055508160008085815260200190815260200160002060008b73ffffffffffffffffffffffffffffffffffffffff1673ffffffffffffffffffffffffffffffffffffffff1681526020019081526020016000206000828254611bbc919061353f565b9250508190555050505080611bd09061373c565b90506119dd565b508473ffffffffffffffffffffffffffffffffffffffff168673ffffffffffffffffffffffffffffffffffffffff168273ffffffffffffffffffffffffffffffffffffffff167f4a39dc06d4c0dbc64b70af90fd698a233a518aa5d07e595d983b8c0526c8f7fb8787604051611c4e929190613097565b60405180910390a4611c64818787878787611eb5565b611c728187878787876120a4565b505050505050565b8173ffffffffffffffffffffffffffffffffffffffff168373ffffffffffffffffffffffffffffffffffffffff161415611ce9576040517f08c379a0000000000000000000000000000000000000000000000000000000008152600401611ce09061324b565b60405180910390fd5b80600160008573ffffffffffffffffffffffffffffffffffffffff1673ffffffffffffffffffffffffffffffffffffffff16815260200190815260200160002060008473ffffffffffffffffffffffffffffffffffffffff1673ffffffffffffffffffffffffffffffffffffffff16815260200190815260200160002060006101000a81548160ff0219169083151502179055508173ffffffffffffffffffffffffffffffffffffffff168373ffffffffffffffffffffffffffffffffffffffff167f17307eab39ab6107e8899845ad3d59bd9653f200f220920489ca2b5937696c3183604051611dda91906130ce565b60405180910390a3505050565b60606000600167ffffffffffffffff811115611e2c577f4e487b7100000000000000000000000000000000000000000000000000000000600052604160045260246000fd5b604051908082528060200260200182016040528015611e5a5781602001602082028036833780820191505090505b5090508281600081518110611e98577f4e487b7100000000000000000000000000000000000000000000000000000000600052603260045260246000fd5b60200260200101818152505080915050919050565b505050505050565b505050505050565b611edc8473ffffffffffffffffffffffffffffffffffffffff1661228b565b1561209c578373ffffffffffffffffffffffffffffffffffffffff1663f23a6e6187878686866040518663ffffffff1660e01b8152600401611f22959493929190612fd7565b602060405180830381600087803b158015611f3c57600080fd5b505af1925050508015611f6d57506040513d601f19601f82011682018060405250810190611f6a9190612892565b60015b61201357611f79613812565b806308c379a01415611fd65750611f8e613ccd565b80611f995750611fd8565b806040517f08c379a0000000000000000000000000000000000000000000000000000000008152600401611fcd91906130e9565b60405180910390fd5b505b6040517f08c379a000000000000000000000000000000000000000000000000000000000815260040161200a9061310b565b60405180910390fd5b63f23a6e6160e01b7bffffffffffffffffffffffffffffffffffffffffffffffffffffffff1916817bffffffffffffffffffffffffffffffffffffffffffffffffffffffff19161461209a576040517f08c379a00000000000000000000000000000000000000000000000000000000081526004016120919061312b565b60405180910390fd5b505b505050505050565b6120c38473ffffffffffffffffffffffffffffffffffffffff1661228b565b15612283578373ffffffffffffffffffffffffffffffffffffffff1663bc197c8187878686866040518663ffffffff1660e01b8152600401612109959493929190612f6f565b602060405180830381600087803b15801561212357600080fd5b505af192505050801561215457506040513d601f19601f820116820180604052508101906121519190612892565b60015b6121fa57612160613812565b806308c379a014156121bd5750612175613ccd565b8061218057506121bf565b806040517f08c379a00000000000000000000000000000000000000000000000000000000081526004016121b491906130e9565b60405180910390fd5b505b6040517f08c379a00000000000000000000000000000000000000000000000000000000081526004016121f19061310b565b60405180910390fd5b63bc197c8160e01b7bffffffffffffffffffffffffffffffffffffffffffffffffffffffff1916817bffffffffffffffffffffffffffffffffffffffffffffffffffffffff191614612281576040517f08c379a00000000000000000000000000000000000000000000000000000000081526004016122789061312b565b60405180910390fd5b505b505050505050565b6000808273ffffffffffffffffffffffffffffffffffffffff163b119050919050565b8280546122ba906136d9565b90600052602060002090601f0160209004810192826122dc5760008555612323565b82601f106122f557805160ff1916838001178555612323565b82800160010185558215612323579182015b82811115612322578251825591602001919060010190612307565b5b5090506123309190612379565b5090565b6040518060a0016040528060008152602001606081526020016000815260200160008152602001600073ffffffffffffffffffffffffffffffffffffffff1681525090565b5b8082111561239257600081600090555060010161237a565b5090565b60006123a96123a484613391565b61336c565b905080838252602082019050828560208602820111156123c857600080fd5b60005b858110156123f857816123de88826124ea565b8452602084019350602083019250506001810190506123cb565b5050509392505050565b6000612415612410846133bd565b61336c565b9050808382526020820190508285602086028201111561243457600080fd5b60005b85811015612464578161244a88826125e6565b845260208401935060208301925050600181019050612437565b5050509392505050565b600061248161247c846133e9565b61336c565b90508281526020810184848401111561249957600080fd5b6124a4848285613697565b509392505050565b60006124bf6124ba8461341a565b61336c565b9050828152602081018484840111156124d757600080fd5b6124e2848285613697565b509392505050565b6000813590506124f981613d63565b92915050565b600082601f83011261251057600080fd5b8135612520848260208601612396565b91505092915050565b600082601f83011261253a57600080fd5b813561254a848260208601612402565b91505092915050565b60008135905061256281613d7a565b92915050565b60008135905061257781613d91565b92915050565b60008151905061258c81613d91565b92915050565b600082601f8301126125a357600080fd5b81356125b384826020860161246e565b91505092915050565b600082601f8301126125cd57600080fd5b81356125dd8482602086016124ac565b91505092915050565b6000813590506125f581613da8565b92915050565b6000806040838503121561260e57600080fd5b600061261c858286016124ea565b925050602061262d858286016124ea565b9150509250929050565b600080600080600060a0868803121561264f57600080fd5b600061265d888289016124ea565b955050602061266e888289016124ea565b945050604086013567ffffffffffffffff81111561268b57600080fd5b61269788828901612529565b935050606086013567ffffffffffffffff8111156126b457600080fd5b6126c088828901612529565b925050608086013567ffffffffffffffff8111156126dd57600080fd5b6126e988828901612592565b9150509295509295909350565b600080600080600060a0868803121561270e57600080fd5b600061271c888289016124ea565b955050602061272d888289016124ea565b945050604061273e888289016125e6565b935050606061274f888289016125e6565b925050608086013567ffffffffffffffff81111561276c57600080fd5b61277888828901612592565b9150509295509295909350565b6000806040838503121561279857600080fd5b60006127a6858286016124ea565b92505060206127b785828601612553565b9150509250929050565b600080604083850312156127d457600080fd5b60006127e2858286016124ea565b92505060206127f3858286016125e6565b9150509250929050565b6000806040838503121561281057600080fd5b600083013567ffffffffffffffff81111561282a57600080fd5b612836858286016124ff565b925050602083013567ffffffffffffffff81111561285357600080fd5b61285f85828601612529565b9150509250929050565b60006020828403121561287b57600080fd5b600061288984828501612568565b91505092915050565b6000602082840312156128a457600080fd5b60006128b28482850161257d565b91505092915050565b6000806000606084860312156128d057600080fd5b600084013567ffffffffffffffff8111156128ea57600080fd5b6128f6868287016125bc565b9350506020612907868287016125e6565b9250506040612918868287016125e6565b9150509250925092565b60006020828403121561293457600080fd5b6000612942848285016125e6565b91505092915050565b6000806040838503121561295e57600080fd5b600061296c858286016125e6565b925050602061297d858286016125e6565b9150509250929050565b60006129938383612de1565b60608301905092915050565b60006129ab8383612e65565b905092915050565b60006129bf8383612f51565b60208301905092915050565b6129d481613623565b82525050565b6129e381613623565b82525050565b60006129f48261347b565b6129fe81856134d9565b9350612a098361344b565b8060005b83811015612a3a578151612a218882612987565b9750612a2c836134b2565b925050600181019050612a0d565b5085935050505092915050565b6000612a5282613486565b612a5c81856134ea565b935083602082028501612a6e8561345b565b8060005b85811015612aaa5784840389528151612a8b858261299f565b9450612a96836134bf565b925060208a01995050600181019050612a72565b50829750879550505050505092915050565b6000612ac782613491565b612ad181856134fb565b9350612adc8361346b565b8060005b83811015612b0d578151612af488826129b3565b9750612aff836134cc565b925050600181019050612ae0565b5085935050505092915050565b612b2381613635565b82525050565b6000612b348261349c565b612b3e818561350c565b9350612b4e8185602086016136a6565b612b5781613834565b840191505092915050565b6000612b6d826134a7565b612b77818561351d565b9350612b878185602086016136a6565b612b9081613834565b840191505092915050565b6000612ba6826134a7565b612bb0818561352e565b9350612bc08185602086016136a6565b612bc981613834565b840191505092915050565b6000612be160348361352e565b9150612bec82613852565b604082019050919050565b6000612c0460288361352e565b9150612c0f826138a1565b604082019050919050565b6000612c27602b8361352e565b9150612c32826138f0565b604082019050919050565b6000612c4a601d8361352e565b9150612c558261393f565b602082019050919050565b6000612c6d60258361352e565b9150612c7882613968565b604082019050919050565b6000612c90602e8361352e565b9150612c9b826139b7565b604082019050919050565b6000612cb360298361352e565b9150612cbe82613a06565b604082019050919050565b6000612cd660258361352e565b9150612ce182613a55565b604082019050919050565b6000612cf960328361352e565b9150612d0482613aa4565b604082019050919050565b6000612d1c602a8361352e565b9150612d2782613af3565b604082019050919050565b6000612d3f60298361352e565b9150612d4a82613b42565b604082019050919050565b6000612d6260298361352e565b9150612d6d82613b91565b604082019050919050565b6000612d8560288361352e565b9150612d9082613be0565b604082019050919050565b6000612da860218361352e565b9150612db382613c2f565b604082019050919050565b6000612dcb602b8361352e565b9150612dd682613c7e565b604082019050919050565b606082016000820151612df76000850182612f51565b506020820151612e0a60208501826129cb565b506040820151612e1d6040850182612f51565b50505050565b606082016000820151612e396000850182612f51565b506020820151612e4c60208501826129cb565b506040820151612e5f6040850182612f51565b50505050565b600060a083016000830151612e7d6000860182612f51565b5060208301518482036020860152612e958282612b62565b9150506040830151612eaa6040860182612f51565b506060830151612ebd6060860182612f51565b506080830151612ed060808601826129cb565b508091505092915050565b600060a083016000830151612ef36000860182612f51565b5060208301518482036020860152612f0b8282612b62565b9150506040830151612f206040860182612f51565b506060830151612f336060860182612f51565b506080830151612f4660808601826129cb565b508091505092915050565b612f5a8161368d565b82525050565b612f698161368d565b82525050565b600060a082019050612f8460008301886129da565b612f9160208301876129da565b8181036040830152612fa38186612abc565b90508181036060830152612fb78185612abc565b90508181036080830152612fcb8184612b29565b90509695505050505050565b600060a082019050612fec60008301886129da565b612ff960208301876129da565b6130066040830186612f60565b6130136060830185612f60565b81810360808301526130258184612b29565b90509695505050505050565b6000602082019050818103600083015261304b81846129e9565b905092915050565b6000602082019050818103600083015261306d8184612a47565b905092915050565b6000602082019050818103600083015261308f8184612abc565b905092915050565b600060408201905081810360008301526130b18185612abc565b905081810360208301526130c58184612abc565b90509392505050565b60006020820190506130e36000830184612b1a565b92915050565b600060208201905081810360008301526131038184612b9b565b905092915050565b6000602082019050818103600083015261312481612bd4565b9050919050565b6000602082019050818103600083015261314481612bf7565b9050919050565b6000602082019050818103600083015261316481612c1a565b9050919050565b6000602082019050818103600083015261318481612c3d565b9050919050565b600060208201905081810360008301526131a481612c60565b9050919050565b600060208201905081810360008301526131c481612c83565b9050919050565b600060208201905081810360008301526131e481612ca6565b9050919050565b6000602082019050818103600083015261320481612cc9565b9050919050565b6000602082019050818103600083015261322481612cec565b9050919050565b6000602082019050818103600083015261324481612d0f565b9050919050565b6000602082019050818103600083015261326481612d32565b9050919050565b6000602082019050818103600083015261328481612d55565b9050919050565b600060208201905081810360008301526132a481612d78565b9050919050565b600060208201905081810360008301526132c481612d9b565b9050919050565b600060208201905081810360008301526132e481612dbe565b9050919050565b60006060820190506133006000830184612e23565b92915050565b600060208201905081810360008301526133208184612edb565b905092915050565b600060208201905061333d6000830184612f60565b92915050565b60006040820190506133586000830185612f60565b6133656020830184612f60565b9392505050565b6000613376613387565b9050613382828261370b565b919050565b6000604051905090565b600067ffffffffffffffff8211156133ac576133ab6137e3565b5b602082029050602081019050919050565b600067ffffffffffffffff8211156133d8576133d76137e3565b5b602082029050602081019050919050565b600067ffffffffffffffff821115613404576134036137e3565b5b61340d82613834565b9050602081019050919050565b600067ffffffffffffffff821115613435576134346137e3565b5b61343e82613834565b9050602081019050919050565b6000819050602082019050919050565b6000819050602082019050919050565b6000819050602082019050919050565b600081519050919050565b600081519050919050565b600081519050919050565b600081519050919050565b600081519050919050565b6000602082019050919050565b6000602082019050919050565b6000602082019050919050565b600082825260208201905092915050565b600082825260208201905092915050565b600082825260208201905092915050565b600082825260208201905092915050565b600082825260208201905092915050565b600082825260208201905092915050565b600061354a8261368d565b91506135558361368d565b9250827fffffffffffffffffffffffffffffffffffffffffffffffffffffffffffffffff0382111561358a57613589613785565b5b828201905092915050565b60006135a08261368d565b91506135ab8361368d565b9250817fffffffffffffffffffffffffffffffffffffffffffffffffffffffffffffffff04831182151516156135e4576135e3613785565b5b828202905092915050565b60006135fa8261368d565b91506136058361368d565b92508282101561361857613617613785565b5b828203905092915050565b600061362e8261366d565b9050919050565b60008115159050919050565b60007fffffffff0000000000000000000000000000000000000000000000000000000082169050919050565b600073ffffffffffffffffffffffffffffffffffffffff82169050919050565b6000819050919050565b82818337600083830152505050565b60005b838110156136c45780820151818401526020810190506136a9565b838111156136d3576000848401525b50505050565b600060028204905060018216806136f157607f821691505b60208210811415613705576137046137b4565b5b50919050565b61371482613834565b810181811067ffffffffffffffff82111715613733576137326137e3565b5b80604052505050565b60006137478261368d565b91507fffffffffffffffffffffffffffffffffffffffffffffffffffffffffffffffff82141561377a57613779613785565b5b600182019050919050565b7f4e487b7100000000000000000000000000000000000000000000000000000000600052601160045260246000fd5b7f4e487b7100000000000000000000000000000000000000000000000000000000600052602260045260246000fd5b7f4e487b7100000000000000000000000000000000000000000000000000000000600052604160045260246000fd5b600060033d11156138315760046000803e61382e600051613845565b90505b90565b6000601f19601f8301169050919050565b60008160e01c9050919050565b7f455243313135353a207472616e7366657220746f206e6f6e204552433131353560008201527f526563656976657220696d706c656d656e746572000000000000000000000000602082015250565b7f455243313135353a204552433131353552656365697665722072656a6563746560008201527f6420746f6b656e73000000000000000000000000000000000000000000000000602082015250565b7f455243313135353a2062616c616e636520717565727920666f7220746865207a60008201527f65726f2061646472657373000000000000000000000000000000000000000000602082015250565b7f455243313135353a205469636b6574732061726520736f6c64206f7574000000600082015250565b7f455243313135353a20496e73756669656e742066756e6420746f20627579207460008201527f69636b6574000000000000000000000000000000000000000000000000000000602082015250565b7f455243313135353a206576656e74206973206e6f742061766169626c6520776960008201527f746820676976656e20746f6b656e000000000000000000000000000000000000602082015250565b7f455243313135353a2063616c6c6572206973206e6f74206f776e6572206e6f7260008201527f20617070726f7665640000000000000000000000000000000000000000000000602082015250565b7f455243313135353a207472616e7366657220746f20746865207a65726f20616460008201527f6472657373000000000000000000000000000000000000000000000000000000602082015250565b7f455243313135353a207472616e736665722063616c6c6572206973206e6f742060008201527f6f776e6572206e6f7220617070726f7665640000000000000000000000000000602082015250565b7f455243313135353a20696e73756666696369656e742062616c616e636520666f60008201527f72207472616e7366657200000000000000000000000000000000000000000000602082015250565b7f455243313135353a2073657474696e6720617070726f76616c2073746174757360008201527f20666f722073656c660000000000000000000000000000000000000000000000602082015250565b7f455243313135353a206163636f756e747320616e6420696473206c656e67746860008201527f206d69736d617463680000000000000000000000000000000000000000000000602082015250565b7f455243313135353a2069647320616e6420616d6f756e7473206c656e6774682060008201527f6d69736d61746368000000000000000000000000000000000000000000000000602082015250565b7f455243313135353a206d696e7420746f20746865207a65726f2061646472657360008201527f7300000000000000000000000000000000000000000000000000000000000000602082015250565b7f455243313135353a206576656e74416c7265616479204578697374207769746860008201527f207468697320746f6b656e000000000000000000000000000000000000000000602082015250565b600060443d1015613cdd57613d60565b613ce5613387565b60043d036004823e80513d602482011167ffffffffffffffff82111715613d0d575050613d60565b808201805167ffffffffffffffff811115613d2b5750505050613d60565b80602083010160043d038501811115613d48575050505050613d60565b613d578260200185018661370b565b82955050505050505b90565b613d6c81613623565b8114613d7757600080fd5b50565b613d8381613635565b8114613d8e57600080fd5b50565b613d9a81613641565b8114613da557600080fd5b50565b613db18161368d565b8114613dbc57600080fd5b5056fea264697066735822122011c7dab194bfdbc50e4956cd6de6b261c5097d8cbd4671e9dd47cd652edf19ac64736f6c63430008040033",
  "linkReferences": {},
  "deployedLinkReferences": {}
}