{
  "_format": "hh-sol-artifact-1",
  "contractName": "Ticket",
  "sourceName": "src/Contract/contracts/Ticket.sol",
  "abi": [
    {
      "inputs": [],
      "stateMutability": "nonpayable",
      "type": "constructor"
    },
    {
      "anonymous": false,
      "inputs": [
        {
          "indexed": true,
          "internalType": "address",
          "name": "account",
          "type": "address"
        },
        {
          "indexed": true,
          "internalType": "address",
          "name": "operator",
          "type": "address"
        },
        {
          "indexed": false,
          "internalType": "bool",
          "name": "approved",
          "type": "bool"
        }
      ],
      "name": "ApprovalForAll",
      "type": "event"
    },
    {
      "anonymous": false,
      "inputs": [
        {
          "indexed": true,
          "internalType": "uint256",
          "name": "token",
          "type": "uint256"
        },
        {
          "components": [
            {
              "internalType": "uint256",
              "name": "tokenId",
              "type": "uint256"
            },
            {
              "internalType": "address",
              "name": "addr",
              "type": "address"
            },
            {
              "internalType": "uint256",
              "name": "tickets",
              "type": "uint256"
            }
          ],
          "indexed": false,
          "internalType": "struct Ticket.Buyer",
          "name": "buyer",
          "type": "tuple"
        }
      ],
      "name": "Buy",
      "type": "event"
    },
    {
      "anonymous": false,
      "inputs": [
        {
          "indexed": true,
          "internalType": "uint256",
          "name": "id",
          "type": "uint256"
        },
        {
          "components": [
            {
              "internalType": "uint256",
              "name": "tokenId",
              "type": "uint256"
            },
            {
              "internalType": "string",
              "name": "tokenURI",
              "type": "string"
            },
            {
              "internalType": "uint256",
              "name": "tickets",
              "type": "uint256"
            },
            {
              "internalType": "uint256",
              "name": "price",
              "type": "uint256"
            },
            {
              "internalType": "address",
              "name": "owner",
              "type": "address"
            }
          ],
          "indexed": false,
          "internalType": "struct Ticket.Event",
          "name": "_event",
          "type": "tuple"
        }
      ],
      "name": "EventCreated",
      "type": "event"
    },
    {
      "anonymous": false,
      "inputs": [
        {
          "indexed": true,
          "internalType": "address",
          "name": "previousOwner",
          "type": "address"
        },
        {
          "indexed": true,
          "internalType": "address",
          "name": "newOwner",
          "type": "address"
        }
      ],
      "name": "OwnershipTransferred",
      "type": "event"
    },
    {
      "anonymous": false,
      "inputs": [
        {
          "indexed": true,
          "internalType": "address",
          "name": "operator",
          "type": "address"
        },
        {
          "indexed": true,
          "internalType": "address",
          "name": "from",
          "type": "address"
        },
        {
          "indexed": true,
          "internalType": "address",
          "name": "to",
          "type": "address"
        },
        {
          "indexed": false,
          "internalType": "uint256[]",
          "name": "ids",
          "type": "uint256[]"
        },
        {
          "indexed": false,
          "internalType": "uint256[]",
          "name": "values",
          "type": "uint256[]"
        }
      ],
      "name": "TransferBatch",
      "type": "event"
    },
    {
      "anonymous": false,
      "inputs": [
        {
          "indexed": true,
          "internalType": "address",
          "name": "operator",
          "type": "address"
        },
        {
          "indexed": true,
          "internalType": "address",
          "name": "from",
          "type": "address"
        },
        {
          "indexed": true,
          "internalType": "address",
          "name": "to",
          "type": "address"
        },
        {
          "indexed": false,
          "internalType": "uint256",
          "name": "id",
          "type": "uint256"
        },
        {
          "indexed": false,
          "internalType": "uint256",
          "name": "value",
          "type": "uint256"
        }
      ],
      "name": "TransferSingle",
      "type": "event"
    },
    {
      "anonymous": false,
      "inputs": [
        {
          "indexed": false,
          "internalType": "string",
          "name": "value",
          "type": "string"
        },
        {
          "indexed": true,
          "internalType": "uint256",
          "name": "id",
          "type": "uint256"
        }
      ],
      "name": "URI",
      "type": "event"
    },
    {
      "inputs": [
        {
          "internalType": "uint256",
          "name": "_tokenId",
          "type": "uint256"
        },
        {
          "internalType": "string",
          "name": "_tokenURI",
          "type": "string"
        },
        {
          "internalType": "uint256",
          "name": "_tickets",
          "type": "uint256"
        },
        {
          "internalType": "uint256",
          "name": "_price",
          "type": "uint256"
        }
      ],
      "name": "CreateEvent",
      "outputs": [],
      "stateMutability": "nonpayable",
      "type": "function"
    },
    {
      "inputs": [
        {
          "internalType": "address",
          "name": "account",
          "type": "address"
        },
        {
          "internalType": "uint256",
          "name": "id",
          "type": "uint256"
        }
      ],
      "name": "balanceOf",
      "outputs": [
        {
          "internalType": "uint256",
          "name": "",
          "type": "uint256"
        }
      ],
      "stateMutability": "view",
      "type": "function"
    },
    {
      "inputs": [
        {
          "internalType": "address[]",
          "name": "accounts",
          "type": "address[]"
        },
        {
          "internalType": "uint256[]",
          "name": "ids",
          "type": "uint256[]"
        }
      ],
      "name": "balanceOfBatch",
      "outputs": [
        {
          "internalType": "uint256[]",
          "name": "",
          "type": "uint256[]"
        }
      ],
      "stateMutability": "view",
      "type": "function"
    },
    {
      "inputs": [
        {
          "internalType": "uint256",
          "name": "_tickets",
          "type": "uint256"
        },
        {
          "internalType": "uint256",
          "name": "_tokenId",
          "type": "uint256"
        }
      ],
      "name": "buyTicket",
      "outputs": [],
      "stateMutability": "payable",
      "type": "function"
    },
    {
      "inputs": [
        {
          "internalType": "uint256",
          "name": "_tokenId",
          "type": "uint256"
        }
      ],
      "name": "checkAvailableTickets",
      "outputs": [
        {
          "internalType": "uint256",
          "name": "",
          "type": "uint256"
        }
      ],
      "stateMutability": "view",
      "type": "function"
    },
    {
      "inputs": [
        {
          "internalType": "uint256",
          "name": "_tokenId",
          "type": "uint256"
        }
      ],
      "name": "getBuyers",
      "outputs": [
        {
          "components": [
            {
              "internalType": "uint256",
              "name": "tokenId",
              "type": "uint256"
            },
            {
              "internalType": "address",
              "name": "addr",
              "type": "address"
            },
            {
              "internalType": "uint256",
              "name": "tickets",
              "type": "uint256"
            }
          ],
          "internalType": "struct Ticket.Buyer[]",
          "name": "",
          "type": "tuple[]"
        }
      ],
      "stateMutability": "view",
      "type": "function"
    },
    {
      "inputs": [
        {
          "internalType": "uint256",
          "name": "_tokenId",
          "type": "uint256"
        }
      ],
      "name": "getEvent",
      "outputs": [
        {
          "components": [
            {
              "internalType": "uint256",
              "name": "tokenId",
              "type": "uint256"
            },
            {
              "internalType": "string",
              "name": "tokenURI",
              "type": "string"
            },
            {
              "internalType": "uint256",
              "name": "tickets",
              "type": "uint256"
            },
            {
              "internalType": "uint256",
              "name": "price",
              "type": "uint256"
            },
            {
              "internalType": "address",
              "name": "owner",
              "type": "address"
            }
          ],
          "internalType": "struct Ticket.Event",
          "name": "",
          "type": "tuple"
        }
      ],
      "stateMutability": "view",
      "type": "function"
    },
    {
      "inputs": [
        {
          "internalType": "address",
          "name": "account",
          "type": "address"
        },
        {
          "internalType": "address",
          "name": "operator",
          "type": "address"
        }
      ],
      "name": "isApprovedForAll",
      "outputs": [
        {
          "internalType": "bool",
          "name": "",
          "type": "bool"
        }
      ],
      "stateMutability": "view",
      "type": "function"
    },
    {
      "inputs": [],
      "name": "owner",
      "outputs": [
        {
          "internalType": "address",
          "name": "",
          "type": "address"
        }
      ],
      "stateMutability": "view",
      "type": "function"
    },
    {
      "inputs": [],
      "name": "renounceOwnership",
      "outputs": [],
      "stateMutability": "nonpayable",
      "type": "function"
    },
    {
      "inputs": [
        {
          "internalType": "address",
          "name": "from",
          "type": "address"
        },
        {
          "internalType": "address",
          "name": "to",
          "type": "address"
        },
        {
          "internalType": "uint256[]",
          "name": "ids",
          "type": "uint256[]"
        },
        {
          "internalType": "uint256[]",
          "name": "amounts",
          "type": "uint256[]"
        },
        {
          "internalType": "bytes",
          "name": "data",
          "type": "bytes"
        }
      ],
      "name": "safeBatchTransferFrom",
      "outputs": [],
      "stateMutability": "nonpayable",
      "type": "function"
    },
    {
      "inputs": [
        {
          "internalType": "address",
          "name": "from",
          "type": "address"
        },
        {
          "internalType": "address",
          "name": "to",
          "type": "address"
        },
        {
          "internalType": "uint256",
          "name": "id",
          "type": "uint256"
        },
        {
          "internalType": "uint256",
          "name": "amount",
          "type": "uint256"
        },
        {
          "internalType": "bytes",
          "name": "data",
          "type": "bytes"
        }
      ],
      "name": "safeTransferFrom",
      "outputs": [],
      "stateMutability": "nonpayable",
      "type": "function"
    },
    {
      "inputs": [
        {
          "internalType": "address",
          "name": "operator",
          "type": "address"
        },
        {
          "internalType": "bool",
          "name": "approved",
          "type": "bool"
        }
      ],
      "name": "setApprovalForAll",
      "outputs": [],
      "stateMutability": "nonpayable",
      "type": "function"
    },
    {
      "inputs": [
        {
          "internalType": "bytes4",
          "name": "interfaceId",
          "type": "bytes4"
        }
      ],
      "name": "supportsInterface",
      "outputs": [
        {
          "internalType": "bool",
          "name": "",
          "type": "bool"
        }
      ],
      "stateMutability": "view",
      "type": "function"
    },
    {
      "inputs": [
        {
          "internalType": "address",
          "name": "newOwner",
          "type": "address"
        }
      ],
      "name": "transferOwnership",
      "outputs": [],
      "stateMutability": "nonpayable",
      "type": "function"
    },
    {
      "inputs": [
        {
          "internalType": "uint256",
          "name": "",
          "type": "uint256"
        }
      ],
      "name": "uri",
      "outputs": [
        {
          "internalType": "string",
          "name": "",
          "type": "string"
        }
      ],
      "stateMutability": "view",
      "type": "function"
    }
  ],
  "bytecode": "0x60806040523480156200001157600080fd5b506040518060200160405280600081525062000033816200005a60201b60201c565b5062000054620000486200007660201b60201c565b6200007e60201b60201c565b62000259565b80600290805190602001906200007292919062000144565b5050565b600033905090565b6000600360009054906101000a900473ffffffffffffffffffffffffffffffffffffffff16905081600360006101000a81548173ffffffffffffffffffffffffffffffffffffffff021916908373ffffffffffffffffffffffffffffffffffffffff1602179055508173ffffffffffffffffffffffffffffffffffffffff168173ffffffffffffffffffffffffffffffffffffffff167f8be0079c531659141344cd1fd0a4f28419497f9722a3daafe3b4186f6b6457e060405160405180910390a35050565b8280546200015290620001f4565b90600052602060002090601f016020900481019282620001765760008555620001c2565b82601f106200019157805160ff1916838001178555620001c2565b82800160010185558215620001c2579182015b82811115620001c1578251825591602001919060010190620001a4565b5b509050620001d19190620001d5565b5090565b5b80821115620001f0576000816000905550600101620001d6565b5090565b600060028204905060018216806200020d57607f821691505b602082108114156200022457620002236200022a565b5b50919050565b7f4e487b7100000000000000000000000000000000000000000000000000000000600052602260045260246000fd5b613d7c80620002696000396000f3fe6080604052600436106100f25760003560e01c8063735d9f0f1161008a578063a22cb46511610059578063a22cb46514610352578063e985e9c51461037b578063f242432a146103b8578063f2fde38b146103e1576100f2565b8063735d9f0f146102845780637feafd20146102ad5780638d44d121146102ea5780638da5cb5b14610327576100f2565b80632eb2c2d6116100c65780632eb2c2d6146101ca5780634e1273f4146101f35780636d1884e014610230578063715018a61461026d576100f2565b8062fdd58e146100f757806301ffc9a7146101345780630e89341c14610171578063298ec208146101ae575b600080fd5b34801561010357600080fd5b5061011e60048036038101906101199190612775565b61040a565b60405161012b9190613270565b60405180910390f35b34801561014057600080fd5b5061015b6004803603810190610156919061281d565b6104d3565b6040516101689190612fd6565b60405180910390f35b34801561017d57600080fd5b506101986004803603810190610193919061286f565b6105b5565b6040516101a59190612ff1565b60405180910390f35b6101c860048036038101906101c39190612913565b610649565b005b3480156101d657600080fd5b506101f160048036038101906101ec91906125eb565b6109e2565b005b3480156101ff57600080fd5b5061021a600480360381019061021591906127b1565b610a83565b6040516102279190612f7d565b60405180910390f35b34801561023c57600080fd5b506102576004803603810190610252919061286f565b610c34565b604051610264919061324e565b60405180910390f35b34801561027957600080fd5b50610282610d67565b005b34801561029057600080fd5b506102ab60048036038101906102a69190612898565b610def565b005b3480156102b957600080fd5b506102d460048036038101906102cf919061286f565b610f7c565b6040516102e19190612f5b565b60405180910390f35b3480156102f657600080fd5b50610311600480360381019061030c919061286f565b611058565b60405161031e9190613270565b60405180910390f35b34801561033357600080fd5b5061033c6110a5565b6040516103499190612e7e565b60405180910390f35b34801561035e57600080fd5b5061037960048036038101906103749190612739565b6110cf565b005b34801561038757600080fd5b506103a2600480360381019061039d91906125af565b6110e5565b6040516103af9190612fd6565b60405180910390f35b3480156103c457600080fd5b506103df60048036038101906103da91906126aa565b611179565b005b3480156103ed57600080fd5b5061040860048036038101906104039190612586565b61121a565b005b60008073ffffffffffffffffffffffffffffffffffffffff168373ffffffffffffffffffffffffffffffffffffffff16141561047b576040517f08c379a000000000000000000000000000000000000000000000000000000000815260040161047290613053565b60405180910390fd5b60008083815260200190815260200160002060008473ffffffffffffffffffffffffffffffffffffffff1673ffffffffffffffffffffffffffffffffffffffff16815260200190815260200160002054905092915050565b60007fd9b67a26000000000000000000000000000000000000000000000000000000007bffffffffffffffffffffffffffffffffffffffffffffffffffffffff1916827bffffffffffffffffffffffffffffffffffffffffffffffffffffffff1916148061059e57507f0e89341c000000000000000000000000000000000000000000000000000000007bffffffffffffffffffffffffffffffffffffffffffffffffffffffff1916827bffffffffffffffffffffffffffffffffffffffffffffffffffffffff1916145b806105ae57506105ad82611312565b5b9050919050565b6060600280546105c4906135e8565b80601f01602080910402602001604051908101604052809291908181526020018280546105f0906135e8565b801561063d5780601f106106125761010080835404028352916020019161063d565b820191906000526020600020905b81548152906001019060200180831161062057829003601f168201915b50505050509050919050565b6000600460008381526020019081526020016000206040518060a001604052908160008201548152602001600182018054610683906135e8565b80601f01602080910402602001604051908101604052809291908181526020018280546106af906135e8565b80156106fc5780601f106106d1576101008083540402835291602001916106fc565b820191906000526020600020905b8154815290600101906020018083116106df57829003601f168201915b5050505050815260200160028201548152602001600382015481526020016004820160009054906101000a900473ffffffffffffffffffffffffffffffffffffffff1673ffffffffffffffffffffffffffffffffffffffff1673ffffffffffffffffffffffffffffffffffffffff168152505090506000600460008481526020019081526020016000206000015414156107cb576040517f08c379a00000000000000000000000000000000000000000000000000000000081526004016107c2906130d3565b60405180910390fd5b60006107d683611058565b1415610817576040517f08c379a000000000000000000000000000000000000000000000000000000000815260040161080e90613093565b60405180910390fd5b3483826060015161082891906134a4565b14610868576040517f08c379a000000000000000000000000000000000000000000000000000000000815260040161085f906130b3565b60405180910390fd5b6000816080015190508073ffffffffffffffffffffffffffffffffffffffff166108fc349081150290604051600060405180830381858888f193505050501580156108b7573d6000803e3d6000fd5b506108d4813385876040518060200160405280600081525061137c565b600060405180606001604052808581526020013373ffffffffffffffffffffffffffffffffffffffff168152602001868152509050600560008581526020019081526020016000208190806001815401808255809150506001900390600052602060002090600302016000909190919091506000820151816000015560208201518160010160006101000a81548173ffffffffffffffffffffffffffffffffffffffff021916908373ffffffffffffffffffffffffffffffffffffffff160217905550604082015181600201555050837f034130d921a5318b50c5c1f0f95fe851f6865fc396aa75f39e98c261965a4889826040516109d39190613233565b60405180910390a25050505050565b6109ea611618565b73ffffffffffffffffffffffffffffffffffffffff168573ffffffffffffffffffffffffffffffffffffffff161480610a305750610a2f85610a2a611618565b6110e5565b5b610a6f576040517f08c379a0000000000000000000000000000000000000000000000000000000008152600401610a6690613133565b60405180910390fd5b610a7c8585858585611620565b5050505050565b60608151835114610ac9576040517f08c379a0000000000000000000000000000000000000000000000000000000008152600401610ac0906131b3565b60405180910390fd5b6000835167ffffffffffffffff811115610b0c577f4e487b7100000000000000000000000000000000000000000000000000000000600052604160045260246000fd5b604051908082528060200260200182016040528015610b3a5781602001602082028036833780820191505090505b50905060005b8451811015610c2957610bd3858281518110610b85577f4e487b7100000000000000000000000000000000000000000000000000000000600052603260045260246000fd5b6020026020010151858381518110610bc6577f4e487b7100000000000000000000000000000000000000000000000000000000600052603260045260246000fd5b602002602001015161040a565b828281518110610c0c577f4e487b7100000000000000000000000000000000000000000000000000000000600052603260045260246000fd5b60200260200101818152505080610c229061364b565b9050610b40565b508091505092915050565b610c3c612239565b600460008381526020019081526020016000206040518060a001604052908160008201548152602001600182018054610c74906135e8565b80601f0160208091040260200160405190810160405280929190818152602001828054610ca0906135e8565b8015610ced5780601f10610cc257610100808354040283529160200191610ced565b820191906000526020600020905b815481529060010190602001808311610cd057829003601f168201915b5050505050815260200160028201548152602001600382015481526020016004820160009054906101000a900473ffffffffffffffffffffffffffffffffffffffff1673ffffffffffffffffffffffffffffffffffffffff1673ffffffffffffffffffffffffffffffffffffffff16815250509050919050565b610d6f611618565b73ffffffffffffffffffffffffffffffffffffffff16610d8d6110a5565b73ffffffffffffffffffffffffffffffffffffffff1614610de3576040517f08c379a0000000000000000000000000000000000000000000000000000000008152600401610dda90613173565b60405180910390fd5b610ded600061198e565b565b6000600460008681526020019081526020016000206000015414610e48576040517f08c379a0000000000000000000000000000000000000000000000000000000008152600401610e3f90613213565b60405180910390fd5b60006040518060a001604052808681526020018581526020018481526020018381526020013373ffffffffffffffffffffffffffffffffffffffff1681525090508060046000878152602001908152602001600020600082015181600001556020820151816001019080519060200190610ec392919061227e565b50604082015181600201556060820151816003015560808201518160040160006101000a81548173ffffffffffffffffffffffffffffffffffffffff021916908373ffffffffffffffffffffffffffffffffffffffff160217905550905050610f3d33868560405180602001604052806000815250611a54565b847f5a5d0a2e57772300c856dd763cae7bad495ba5fdfc284931dc61b6c7e91a4c0e82604051610f6d919061324e565b60405180910390a25050505050565b606060056000838152602001908152602001600020805480602002602001604051908101604052809291908181526020016000905b8282101561104d5783829060005260206000209060030201604051806060016040529081600082015481526020016001820160009054906101000a900473ffffffffffffffffffffffffffffffffffffffff1673ffffffffffffffffffffffffffffffffffffffff1673ffffffffffffffffffffffffffffffffffffffff16815260200160028201548152505081526020019060010190610fb1565b505050509050919050565b60008061106483610f7c565b51600460008581526020019081526020016000206002015461108691906134fe565b9050600081111561109a57809150506110a0565b60009150505b919050565b6000600360009054906101000a900473ffffffffffffffffffffffffffffffffffffffff16905090565b6110e16110da611618565b8383611c05565b5050565b6000600160008473ffffffffffffffffffffffffffffffffffffffff1673ffffffffffffffffffffffffffffffffffffffff16815260200190815260200160002060008373ffffffffffffffffffffffffffffffffffffffff1673ffffffffffffffffffffffffffffffffffffffff16815260200190815260200160002060009054906101000a900460ff16905092915050565b611181611618565b73ffffffffffffffffffffffffffffffffffffffff168573ffffffffffffffffffffffffffffffffffffffff1614806111c757506111c6856111c1611618565b6110e5565b5b611206576040517f08c379a00000000000000000000000000000000000000000000000000000000081526004016111fd906130f3565b60405180910390fd5b611213858585858561137c565b5050505050565b611222611618565b73ffffffffffffffffffffffffffffffffffffffff166112406110a5565b73ffffffffffffffffffffffffffffffffffffffff1614611296576040517f08c379a000000000000000000000000000000000000000000000000000000000815260040161128d90613173565b60405180910390fd5b600073ffffffffffffffffffffffffffffffffffffffff168173ffffffffffffffffffffffffffffffffffffffff161415611306576040517f08c379a00000000000000000000000000000000000000000000000000000000081526004016112fd90613073565b60405180910390fd5b61130f8161198e565b50565b60007f01ffc9a7000000000000000000000000000000000000000000000000000000007bffffffffffffffffffffffffffffffffffffffffffffffffffffffff1916827bffffffffffffffffffffffffffffffffffffffffffffffffffffffff1916149050919050565b600073ffffffffffffffffffffffffffffffffffffffff168473ffffffffffffffffffffffffffffffffffffffff1614156113ec576040517f08c379a00000000000000000000000000000000000000000000000000000000081526004016113e390613113565b60405180910390fd5b60006113f6611618565b9050600061140385611d72565b9050600061141085611d72565b9050611420838989858589611e38565b600080600088815260200190815260200160002060008a73ffffffffffffffffffffffffffffffffffffffff1673ffffffffffffffffffffffffffffffffffffffff168152602001908152602001600020549050858110156114b7576040517f08c379a00000000000000000000000000000000000000000000000000000000081526004016114ae90613153565b60405180910390fd5b85810360008089815260200190815260200160002060008b73ffffffffffffffffffffffffffffffffffffffff1673ffffffffffffffffffffffffffffffffffffffff168152602001908152602001600020819055508560008089815260200190815260200160002060008a73ffffffffffffffffffffffffffffffffffffffff1673ffffffffffffffffffffffffffffffffffffffff168152602001908152602001600020600082825461156c919061344e565b925050819055508773ffffffffffffffffffffffffffffffffffffffff168973ffffffffffffffffffffffffffffffffffffffff168573ffffffffffffffffffffffffffffffffffffffff167fc3d58168c5ae7397731d063d5bbf3d657854427343f4c083240f7aacaa2d0f628a8a6040516115e992919061328b565b60405180910390a46115ff848a8a86868a611e40565b61160d848a8a8a8a8a611e48565b505050505050505050565b600033905090565b8151835114611664576040517f08c379a000000000000000000000000000000000000000000000000000000000815260040161165b906131d3565b60405180910390fd5b600073ffffffffffffffffffffffffffffffffffffffff168473ffffffffffffffffffffffffffffffffffffffff1614156116d4576040517f08c379a00000000000000000000000000000000000000000000000000000000081526004016116cb90613113565b60405180910390fd5b60006116de611618565b90506116ee818787878787611e38565b60005b84518110156118eb576000858281518110611735577f4e487b7100000000000000000000000000000000000000000000000000000000600052603260045260246000fd5b60200260200101519050600085838151811061177a577f4e487b7100000000000000000000000000000000000000000000000000000000600052603260045260246000fd5b60200260200101519050600080600084815260200190815260200160002060008b73ffffffffffffffffffffffffffffffffffffffff1673ffffffffffffffffffffffffffffffffffffffff1681526020019081526020016000205490508181101561181b576040517f08c379a000000000000000000000000000000000000000000000000000000000815260040161181290613153565b60405180910390fd5b81810360008085815260200190815260200160002060008c73ffffffffffffffffffffffffffffffffffffffff1673ffffffffffffffffffffffffffffffffffffffff168152602001908152602001600020819055508160008085815260200190815260200160002060008b73ffffffffffffffffffffffffffffffffffffffff1673ffffffffffffffffffffffffffffffffffffffff16815260200190815260200160002060008282546118d0919061344e565b92505081905550505050806118e49061364b565b90506116f1565b508473ffffffffffffffffffffffffffffffffffffffff168673ffffffffffffffffffffffffffffffffffffffff168273ffffffffffffffffffffffffffffffffffffffff167f4a39dc06d4c0dbc64b70af90fd698a233a518aa5d07e595d983b8c0526c8f7fb8787604051611962929190612f9f565b60405180910390a4611978818787878787611e40565b61198681878787878761202f565b505050505050565b6000600360009054906101000a900473ffffffffffffffffffffffffffffffffffffffff16905081600360006101000a81548173ffffffffffffffffffffffffffffffffffffffff021916908373ffffffffffffffffffffffffffffffffffffffff1602179055508173ffffffffffffffffffffffffffffffffffffffff168173ffffffffffffffffffffffffffffffffffffffff167f8be0079c531659141344cd1fd0a4f28419497f9722a3daafe3b4186f6b6457e060405160405180910390a35050565b600073ffffffffffffffffffffffffffffffffffffffff168473ffffffffffffffffffffffffffffffffffffffff161415611ac4576040517f08c379a0000000000000000000000000000000000000000000000000000000008152600401611abb906131f3565b60405180910390fd5b6000611ace611618565b90506000611adb85611d72565b90506000611ae885611d72565b9050611af983600089858589611e38565b8460008088815260200190815260200160002060008973ffffffffffffffffffffffffffffffffffffffff1673ffffffffffffffffffffffffffffffffffffffff1681526020019081526020016000206000828254611b58919061344e565b925050819055508673ffffffffffffffffffffffffffffffffffffffff16600073ffffffffffffffffffffffffffffffffffffffff168473ffffffffffffffffffffffffffffffffffffffff167fc3d58168c5ae7397731d063d5bbf3d657854427343f4c083240f7aacaa2d0f628989604051611bd692919061328b565b60405180910390a4611bed83600089858589611e40565b611bfc83600089898989611e48565b50505050505050565b8173ffffffffffffffffffffffffffffffffffffffff168373ffffffffffffffffffffffffffffffffffffffff161415611c74576040517f08c379a0000000000000000000000000000000000000000000000000000000008152600401611c6b90613193565b60405180910390fd5b80600160008573ffffffffffffffffffffffffffffffffffffffff1673ffffffffffffffffffffffffffffffffffffffff16815260200190815260200160002060008473ffffffffffffffffffffffffffffffffffffffff1673ffffffffffffffffffffffffffffffffffffffff16815260200190815260200160002060006101000a81548160ff0219169083151502179055508173ffffffffffffffffffffffffffffffffffffffff168373ffffffffffffffffffffffffffffffffffffffff167f17307eab39ab6107e8899845ad3d59bd9653f200f220920489ca2b5937696c3183604051611d659190612fd6565b60405180910390a3505050565b60606000600167ffffffffffffffff811115611db7577f4e487b7100000000000000000000000000000000000000000000000000000000600052604160045260246000fd5b604051908082528060200260200182016040528015611de55781602001602082028036833780820191505090505b5090508281600081518110611e23577f4e487b7100000000000000000000000000000000000000000000000000000000600052603260045260246000fd5b60200260200101818152505080915050919050565b505050505050565b505050505050565b611e678473ffffffffffffffffffffffffffffffffffffffff16612216565b15612027578373ffffffffffffffffffffffffffffffffffffffff1663f23a6e6187878686866040518663ffffffff1660e01b8152600401611ead959493929190612f01565b602060405180830381600087803b158015611ec757600080fd5b505af1925050508015611ef857506040513d601f19601f82011682018060405250810190611ef59190612846565b60015b611f9e57611f04613721565b806308c379a01415611f615750611f19613c54565b80611f245750611f63565b806040517f08c379a0000000000000000000000000000000000000000000000000000000008152600401611f589190612ff1565b60405180910390fd5b505b6040517f08c379a0000000000000000000000000000000000000000000000000000000008152600401611f9590613013565b60405180910390fd5b63f23a6e6160e01b7bffffffffffffffffffffffffffffffffffffffffffffffffffffffff1916817bffffffffffffffffffffffffffffffffffffffffffffffffffffffff191614612025576040517f08c379a000000000000000000000000000000000000000000000000000000000815260040161201c90613033565b60405180910390fd5b505b505050505050565b61204e8473ffffffffffffffffffffffffffffffffffffffff16612216565b1561220e578373ffffffffffffffffffffffffffffffffffffffff1663bc197c8187878686866040518663ffffffff1660e01b8152600401612094959493929190612e99565b602060405180830381600087803b1580156120ae57600080fd5b505af19250505080156120df57506040513d601f19601f820116820180604052508101906120dc9190612846565b60015b612185576120eb613721565b806308c379a014156121485750612100613c54565b8061210b575061214a565b806040517f08c379a000000000000000000000000000000000000000000000000000000000815260040161213f9190612ff1565b60405180910390fd5b505b6040517f08c379a000000000000000000000000000000000000000000000000000000000815260040161217c90613013565b60405180910390fd5b63bc197c8160e01b7bffffffffffffffffffffffffffffffffffffffffffffffffffffffff1916817bffffffffffffffffffffffffffffffffffffffffffffffffffffffff19161461220c576040517f08c379a000000000000000000000000000000000000000000000000000000000815260040161220390613033565b60405180910390fd5b505b505050505050565b6000808273ffffffffffffffffffffffffffffffffffffffff163b119050919050565b6040518060a0016040528060008152602001606081526020016000815260200160008152602001600073ffffffffffffffffffffffffffffffffffffffff1681525090565b82805461228a906135e8565b90600052602060002090601f0160209004810192826122ac57600085556122f3565b82601f106122c557805160ff19168380011785556122f3565b828001600101855582156122f3579182015b828111156122f25782518255916020019190600101906122d7565b5b5090506123009190612304565b5090565b5b8082111561231d576000816000905550600101612305565b5090565b600061233461232f846132d9565b6132b4565b9050808382526020820190508285602086028201111561235357600080fd5b60005b8581101561238357816123698882612475565b845260208401935060208301925050600181019050612356565b5050509392505050565b60006123a061239b84613305565b6132b4565b905080838252602082019050828560208602820111156123bf57600080fd5b60005b858110156123ef57816123d58882612571565b8452602084019350602083019250506001810190506123c2565b5050509392505050565b600061240c61240784613331565b6132b4565b90508281526020810184848401111561242457600080fd5b61242f8482856135a6565b509392505050565b600061244a61244584613362565b6132b4565b90508281526020810184848401111561246257600080fd5b61246d8482856135a6565b509392505050565b60008135905061248481613cea565b92915050565b600082601f83011261249b57600080fd5b81356124ab848260208601612321565b91505092915050565b600082601f8301126124c557600080fd5b81356124d584826020860161238d565b91505092915050565b6000813590506124ed81613d01565b92915050565b60008135905061250281613d18565b92915050565b60008151905061251781613d18565b92915050565b600082601f83011261252e57600080fd5b813561253e8482602086016123f9565b91505092915050565b600082601f83011261255857600080fd5b8135612568848260208601612437565b91505092915050565b60008135905061258081613d2f565b92915050565b60006020828403121561259857600080fd5b60006125a684828501612475565b91505092915050565b600080604083850312156125c257600080fd5b60006125d085828601612475565b92505060206125e185828601612475565b9150509250929050565b600080600080600060a0868803121561260357600080fd5b600061261188828901612475565b955050602061262288828901612475565b945050604086013567ffffffffffffffff81111561263f57600080fd5b61264b888289016124b4565b935050606086013567ffffffffffffffff81111561266857600080fd5b612674888289016124b4565b925050608086013567ffffffffffffffff81111561269157600080fd5b61269d8882890161251d565b9150509295509295909350565b600080600080600060a086880312156126c257600080fd5b60006126d088828901612475565b95505060206126e188828901612475565b94505060406126f288828901612571565b935050606061270388828901612571565b925050608086013567ffffffffffffffff81111561272057600080fd5b61272c8882890161251d565b9150509295509295909350565b6000806040838503121561274c57600080fd5b600061275a85828601612475565b925050602061276b858286016124de565b9150509250929050565b6000806040838503121561278857600080fd5b600061279685828601612475565b92505060206127a785828601612571565b9150509250929050565b600080604083850312156127c457600080fd5b600083013567ffffffffffffffff8111156127de57600080fd5b6127ea8582860161248a565b925050602083013567ffffffffffffffff81111561280757600080fd5b612813858286016124b4565b9150509250929050565b60006020828403121561282f57600080fd5b600061283d848285016124f3565b91505092915050565b60006020828403121561285857600080fd5b600061286684828501612508565b91505092915050565b60006020828403121561288157600080fd5b600061288f84828501612571565b91505092915050565b600080600080608085870312156128ae57600080fd5b60006128bc87828801612571565b945050602085013567ffffffffffffffff8111156128d957600080fd5b6128e587828801612547565b93505060406128f687828801612571565b925050606061290787828801612571565b91505092959194509250565b6000806040838503121561292657600080fd5b600061293485828601612571565b925050602061294585828601612571565b9150509250929050565b600061295b8383612d66565b60608301905092915050565b60006129738383612e60565b60208301905092915050565b61298881613532565b82525050565b61299781613532565b82525050565b60006129a8826133b3565b6129b281856133f9565b93506129bd83613393565b8060005b838110156129ee5781516129d5888261294f565b97506129e0836133df565b9250506001810190506129c1565b5085935050505092915050565b6000612a06826133be565b612a10818561340a565b9350612a1b836133a3565b8060005b83811015612a4c578151612a338882612967565b9750612a3e836133ec565b925050600181019050612a1f565b5085935050505092915050565b612a6281613544565b82525050565b6000612a73826133c9565b612a7d818561341b565b9350612a8d8185602086016135b5565b612a9681613743565b840191505092915050565b6000612aac826133d4565b612ab6818561342c565b9350612ac68185602086016135b5565b612acf81613743565b840191505092915050565b6000612ae5826133d4565b612aef818561343d565b9350612aff8185602086016135b5565b612b0881613743565b840191505092915050565b6000612b2060348361343d565b9150612b2b82613761565b604082019050919050565b6000612b4360288361343d565b9150612b4e826137b0565b604082019050919050565b6000612b66602b8361343d565b9150612b71826137ff565b604082019050919050565b6000612b8960268361343d565b9150612b948261384e565b604082019050919050565b6000612bac601d8361343d565b9150612bb78261389d565b602082019050919050565b6000612bcf60258361343d565b9150612bda826138c6565b604082019050919050565b6000612bf2602e8361343d565b9150612bfd82613915565b604082019050919050565b6000612c1560298361343d565b9150612c2082613964565b604082019050919050565b6000612c3860258361343d565b9150612c43826139b3565b604082019050919050565b6000612c5b60328361343d565b9150612c6682613a02565b604082019050919050565b6000612c7e602a8361343d565b9150612c8982613a51565b604082019050919050565b6000612ca160208361343d565b9150612cac82613aa0565b602082019050919050565b6000612cc460298361343d565b9150612ccf82613ac9565b604082019050919050565b6000612ce760298361343d565b9150612cf282613b18565b604082019050919050565b6000612d0a60288361343d565b9150612d1582613b67565b604082019050919050565b6000612d2d60218361343d565b9150612d3882613bb6565b604082019050919050565b6000612d50602b8361343d565b9150612d5b82613c05565b604082019050919050565b606082016000820151612d7c6000850182612e60565b506020820151612d8f602085018261297f565b506040820151612da26040850182612e60565b50505050565b606082016000820151612dbe6000850182612e60565b506020820151612dd1602085018261297f565b506040820151612de46040850182612e60565b50505050565b600060a083016000830151612e026000860182612e60565b5060208301518482036020860152612e1a8282612aa1565b9150506040830151612e2f6040860182612e60565b506060830151612e426060860182612e60565b506080830151612e55608086018261297f565b508091505092915050565b612e698161359c565b82525050565b612e788161359c565b82525050565b6000602082019050612e93600083018461298e565b92915050565b600060a082019050612eae600083018861298e565b612ebb602083018761298e565b8181036040830152612ecd81866129fb565b90508181036060830152612ee181856129fb565b90508181036080830152612ef58184612a68565b90509695505050505050565b600060a082019050612f16600083018861298e565b612f23602083018761298e565b612f306040830186612e6f565b612f3d6060830185612e6f565b8181036080830152612f4f8184612a68565b90509695505050505050565b60006020820190508181036000830152612f75818461299d565b905092915050565b60006020820190508181036000830152612f9781846129fb565b905092915050565b60006040820190508181036000830152612fb981856129fb565b90508181036020830152612fcd81846129fb565b90509392505050565b6000602082019050612feb6000830184612a59565b92915050565b6000602082019050818103600083015261300b8184612ada565b905092915050565b6000602082019050818103600083015261302c81612b13565b9050919050565b6000602082019050818103600083015261304c81612b36565b9050919050565b6000602082019050818103600083015261306c81612b59565b9050919050565b6000602082019050818103600083015261308c81612b7c565b9050919050565b600060208201905081810360008301526130ac81612b9f565b9050919050565b600060208201905081810360008301526130cc81612bc2565b9050919050565b600060208201905081810360008301526130ec81612be5565b9050919050565b6000602082019050818103600083015261310c81612c08565b9050919050565b6000602082019050818103600083015261312c81612c2b565b9050919050565b6000602082019050818103600083015261314c81612c4e565b9050919050565b6000602082019050818103600083015261316c81612c71565b9050919050565b6000602082019050818103600083015261318c81612c94565b9050919050565b600060208201905081810360008301526131ac81612cb7565b9050919050565b600060208201905081810360008301526131cc81612cda565b9050919050565b600060208201905081810360008301526131ec81612cfd565b9050919050565b6000602082019050818103600083015261320c81612d20565b9050919050565b6000602082019050818103600083015261322c81612d43565b9050919050565b60006060820190506132486000830184612da8565b92915050565b600060208201905081810360008301526132688184612dea565b905092915050565b60006020820190506132856000830184612e6f565b92915050565b60006040820190506132a06000830185612e6f565b6132ad6020830184612e6f565b9392505050565b60006132be6132cf565b90506132ca828261361a565b919050565b6000604051905090565b600067ffffffffffffffff8211156132f4576132f36136f2565b5b602082029050602081019050919050565b600067ffffffffffffffff8211156133205761331f6136f2565b5b602082029050602081019050919050565b600067ffffffffffffffff82111561334c5761334b6136f2565b5b61335582613743565b9050602081019050919050565b600067ffffffffffffffff82111561337d5761337c6136f2565b5b61338682613743565b9050602081019050919050565b6000819050602082019050919050565b6000819050602082019050919050565b600081519050919050565b600081519050919050565b600081519050919050565b600081519050919050565b6000602082019050919050565b6000602082019050919050565b600082825260208201905092915050565b600082825260208201905092915050565b600082825260208201905092915050565b600082825260208201905092915050565b600082825260208201905092915050565b60006134598261359c565b91506134648361359c565b9250827fffffffffffffffffffffffffffffffffffffffffffffffffffffffffffffffff0382111561349957613498613694565b5b828201905092915050565b60006134af8261359c565b91506134ba8361359c565b9250817fffffffffffffffffffffffffffffffffffffffffffffffffffffffffffffffff04831182151516156134f3576134f2613694565b5b828202905092915050565b60006135098261359c565b91506135148361359c565b92508282101561352757613526613694565b5b828203905092915050565b600061353d8261357c565b9050919050565b60008115159050919050565b60007fffffffff0000000000000000000000000000000000000000000000000000000082169050919050565b600073ffffffffffffffffffffffffffffffffffffffff82169050919050565b6000819050919050565b82818337600083830152505050565b60005b838110156135d35780820151818401526020810190506135b8565b838111156135e2576000848401525b50505050565b6000600282049050600182168061360057607f821691505b60208210811415613614576136136136c3565b5b50919050565b61362382613743565b810181811067ffffffffffffffff82111715613642576136416136f2565b5b80604052505050565b60006136568261359c565b91507fffffffffffffffffffffffffffffffffffffffffffffffffffffffffffffffff82141561368957613688613694565b5b600182019050919050565b7f4e487b7100000000000000000000000000000000000000000000000000000000600052601160045260246000fd5b7f4e487b7100000000000000000000000000000000000000000000000000000000600052602260045260246000fd5b7f4e487b7100000000000000000000000000000000000000000000000000000000600052604160045260246000fd5b600060033d11156137405760046000803e61373d600051613754565b90505b90565b6000601f19601f8301169050919050565b60008160e01c9050919050565b7f455243313135353a207472616e7366657220746f206e6f6e204552433131353560008201527f526563656976657220696d706c656d656e746572000000000000000000000000602082015250565b7f455243313135353a204552433131353552656365697665722072656a6563746560008201527f6420746f6b656e73000000000000000000000000000000000000000000000000602082015250565b7f455243313135353a2062616c616e636520717565727920666f7220746865207a60008201527f65726f2061646472657373000000000000000000000000000000000000000000602082015250565b7f4f776e61626c653a206e6577206f776e657220697320746865207a65726f206160008201527f6464726573730000000000000000000000000000000000000000000000000000602082015250565b7f455243313135353a205469636b6574732061726520736f6c64206f7574000000600082015250565b7f455243313135353a20496e73756669656e742066756e6420746f20627579207460008201527f69636b6574000000000000000000000000000000000000000000000000000000602082015250565b7f455243313135353a206576656e74206973206e6f742061766169626c6520776960008201527f746820676976656e20746f6b656e000000000000000000000000000000000000602082015250565b7f455243313135353a2063616c6c6572206973206e6f74206f776e6572206e6f7260008201527f20617070726f7665640000000000000000000000000000000000000000000000602082015250565b7f455243313135353a207472616e7366657220746f20746865207a65726f20616460008201527f6472657373000000000000000000000000000000000000000000000000000000602082015250565b7f455243313135353a207472616e736665722063616c6c6572206973206e6f742060008201527f6f776e6572206e6f7220617070726f7665640000000000000000000000000000602082015250565b7f455243313135353a20696e73756666696369656e742062616c616e636520666f60008201527f72207472616e7366657200000000000000000000000000000000000000000000602082015250565b7f4f776e61626c653a2063616c6c6572206973206e6f7420746865206f776e6572600082015250565b7f455243313135353a2073657474696e6720617070726f76616c2073746174757360008201527f20666f722073656c660000000000000000000000000000000000000000000000602082015250565b7f455243313135353a206163636f756e747320616e6420696473206c656e67746860008201527f206d69736d617463680000000000000000000000000000000000000000000000602082015250565b7f455243313135353a2069647320616e6420616d6f756e7473206c656e6774682060008201527f6d69736d61746368000000000000000000000000000000000000000000000000602082015250565b7f455243313135353a206d696e7420746f20746865207a65726f2061646472657360008201527f7300000000000000000000000000000000000000000000000000000000000000602082015250565b7f455243313135353a206576656e74416c7265616479204578697374207769746860008201527f207468697320746f6b656e000000000000000000000000000000000000000000602082015250565b600060443d1015613c6457613ce7565b613c6c6132cf565b60043d036004823e80513d602482011167ffffffffffffffff82111715613c94575050613ce7565b808201805167ffffffffffffffff811115613cb25750505050613ce7565b80602083010160043d038501811115613ccf575050505050613ce7565b613cde8260200185018661361a565b82955050505050505b90565b613cf381613532565b8114613cfe57600080fd5b50565b613d0a81613544565b8114613d1557600080fd5b50565b613d2181613550565b8114613d2c57600080fd5b50565b613d388161359c565b8114613d4357600080fd5b5056fea26469706673582212203ad6e00d58d106a5073e329ff0bd1518e7400847c41942af20fbe722f6a35d8464736f6c63430008040033",
  "linkReferences": {},
  "deployedLinkReferences": {}
}