{
  "_format": "hh-sol-artifact-1",
  "contractName": "Ticket",
  "sourceName": "src/Contract/contracts/Ticket.sol",
  "abi": [
    {
      "inputs": [],
      "stateMutability": "nonpayable",
      "type": "constructor"
    },
    {
      "anonymous": false,
      "inputs": [
        {
          "indexed": true,
          "internalType": "address",
          "name": "account",
          "type": "address"
        },
        {
          "indexed": true,
          "internalType": "address",
          "name": "operator",
          "type": "address"
        },
        {
          "indexed": false,
          "internalType": "bool",
          "name": "approved",
          "type": "bool"
        }
      ],
      "name": "ApprovalForAll",
      "type": "event"
    },
    {
      "anonymous": false,
      "inputs": [
        {
          "indexed": true,
          "internalType": "uint256",
          "name": "token",
          "type": "uint256"
        },
        {
          "components": [
            {
              "internalType": "uint256",
              "name": "tokenId",
              "type": "uint256"
            },
            {
              "internalType": "address",
              "name": "addr",
              "type": "address"
            },
            {
              "internalType": "uint256",
              "name": "tickets",
              "type": "uint256"
            }
          ],
          "indexed": false,
          "internalType": "struct Ticket.Buyer",
          "name": "buyer",
          "type": "tuple"
        }
      ],
      "name": "Buy",
      "type": "event"
    },
    {
      "anonymous": false,
      "inputs": [
        {
          "indexed": true,
          "internalType": "uint256",
          "name": "id",
          "type": "uint256"
        },
        {
          "components": [
            {
              "internalType": "uint256",
              "name": "tokenId",
              "type": "uint256"
            },
            {
              "internalType": "string",
              "name": "tokenURI",
              "type": "string"
            },
            {
              "internalType": "uint256",
              "name": "tickets",
              "type": "uint256"
            },
            {
              "internalType": "uint256",
              "name": "price",
              "type": "uint256"
            },
            {
              "internalType": "address",
              "name": "owner",
              "type": "address"
            }
          ],
          "indexed": false,
          "internalType": "struct Ticket.Event",
          "name": "_event",
          "type": "tuple"
        }
      ],
      "name": "EventCreated",
      "type": "event"
    },
    {
      "anonymous": false,
      "inputs": [
        {
          "indexed": true,
          "internalType": "address",
          "name": "operator",
          "type": "address"
        },
        {
          "indexed": true,
          "internalType": "address",
          "name": "from",
          "type": "address"
        },
        {
          "indexed": true,
          "internalType": "address",
          "name": "to",
          "type": "address"
        },
        {
          "indexed": false,
          "internalType": "uint256[]",
          "name": "ids",
          "type": "uint256[]"
        },
        {
          "indexed": false,
          "internalType": "uint256[]",
          "name": "values",
          "type": "uint256[]"
        }
      ],
      "name": "TransferBatch",
      "type": "event"
    },
    {
      "anonymous": false,
      "inputs": [
        {
          "indexed": true,
          "internalType": "address",
          "name": "operator",
          "type": "address"
        },
        {
          "indexed": true,
          "internalType": "address",
          "name": "from",
          "type": "address"
        },
        {
          "indexed": true,
          "internalType": "address",
          "name": "to",
          "type": "address"
        },
        {
          "indexed": false,
          "internalType": "uint256",
          "name": "id",
          "type": "uint256"
        },
        {
          "indexed": false,
          "internalType": "uint256",
          "name": "value",
          "type": "uint256"
        }
      ],
      "name": "TransferSingle",
      "type": "event"
    },
    {
      "anonymous": false,
      "inputs": [
        {
          "indexed": false,
          "internalType": "string",
          "name": "value",
          "type": "string"
        },
        {
          "indexed": true,
          "internalType": "uint256",
          "name": "id",
          "type": "uint256"
        }
      ],
      "name": "URI",
      "type": "event"
    },
    {
      "inputs": [
        {
          "internalType": "string",
          "name": "_tokenURI",
          "type": "string"
        },
        {
          "internalType": "uint256",
          "name": "_tickets",
          "type": "uint256"
        },
        {
          "internalType": "uint256",
          "name": "_price",
          "type": "uint256"
        }
      ],
      "name": "CreateEvent",
      "outputs": [],
      "stateMutability": "nonpayable",
      "type": "function"
    },
    {
      "inputs": [
        {
          "internalType": "address",
          "name": "account",
          "type": "address"
        },
        {
          "internalType": "uint256",
          "name": "id",
          "type": "uint256"
        }
      ],
      "name": "balanceOf",
      "outputs": [
        {
          "internalType": "uint256",
          "name": "",
          "type": "uint256"
        }
      ],
      "stateMutability": "view",
      "type": "function"
    },
    {
      "inputs": [
        {
          "internalType": "address[]",
          "name": "accounts",
          "type": "address[]"
        },
        {
          "internalType": "uint256[]",
          "name": "ids",
          "type": "uint256[]"
        }
      ],
      "name": "balanceOfBatch",
      "outputs": [
        {
          "internalType": "uint256[]",
          "name": "",
          "type": "uint256[]"
        }
      ],
      "stateMutability": "view",
      "type": "function"
    },
    {
      "inputs": [
        {
          "internalType": "uint256",
          "name": "_tickets",
          "type": "uint256"
        },
        {
          "internalType": "uint256",
          "name": "_tokenId",
          "type": "uint256"
        }
      ],
      "name": "buyTicket",
      "outputs": [],
      "stateMutability": "payable",
      "type": "function"
    },
    {
      "inputs": [
        {
          "internalType": "uint256",
          "name": "_tokenId",
          "type": "uint256"
        }
      ],
      "name": "checkAvailableTickets",
      "outputs": [
        {
          "internalType": "uint256",
          "name": "",
          "type": "uint256"
        }
      ],
      "stateMutability": "view",
      "type": "function"
    },
    {
      "inputs": [],
      "name": "getAllEvents",
      "outputs": [
        {
          "components": [
            {
              "internalType": "uint256",
              "name": "tokenId",
              "type": "uint256"
            },
            {
              "internalType": "string",
              "name": "tokenURI",
              "type": "string"
            },
            {
              "internalType": "uint256",
              "name": "tickets",
              "type": "uint256"
            },
            {
              "internalType": "uint256",
              "name": "price",
              "type": "uint256"
            },
            {
              "internalType": "address",
              "name": "owner",
              "type": "address"
            }
          ],
          "internalType": "struct Ticket.Event[]",
          "name": "",
          "type": "tuple[]"
        }
      ],
      "stateMutability": "view",
      "type": "function"
    },
    {
      "inputs": [
        {
          "internalType": "uint256",
          "name": "_tokenId",
          "type": "uint256"
        }
      ],
      "name": "getBuyers",
      "outputs": [
        {
          "components": [
            {
              "internalType": "uint256",
              "name": "tokenId",
              "type": "uint256"
            },
            {
              "internalType": "address",
              "name": "addr",
              "type": "address"
            },
            {
              "internalType": "uint256",
              "name": "tickets",
              "type": "uint256"
            }
          ],
          "internalType": "struct Ticket.Buyer[]",
          "name": "",
          "type": "tuple[]"
        }
      ],
      "stateMutability": "view",
      "type": "function"
    },
    {
      "inputs": [
        {
          "internalType": "uint256",
          "name": "_tokenId",
          "type": "uint256"
        }
      ],
      "name": "getEvent",
      "outputs": [
        {
          "components": [
            {
              "internalType": "uint256",
              "name": "tokenId",
              "type": "uint256"
            },
            {
              "internalType": "string",
              "name": "tokenURI",
              "type": "string"
            },
            {
              "internalType": "uint256",
              "name": "tickets",
              "type": "uint256"
            },
            {
              "internalType": "uint256",
              "name": "price",
              "type": "uint256"
            },
            {
              "internalType": "address",
              "name": "owner",
              "type": "address"
            }
          ],
          "internalType": "struct Ticket.Event",
          "name": "",
          "type": "tuple"
        }
      ],
      "stateMutability": "view",
      "type": "function"
    },
    {
      "inputs": [
        {
          "internalType": "address",
          "name": "account",
          "type": "address"
        },
        {
          "internalType": "address",
          "name": "operator",
          "type": "address"
        }
      ],
      "name": "isApprovedForAll",
      "outputs": [
        {
          "internalType": "bool",
          "name": "",
          "type": "bool"
        }
      ],
      "stateMutability": "view",
      "type": "function"
    },
    {
      "inputs": [],
      "name": "s_nftId",
      "outputs": [
        {
          "internalType": "uint256",
          "name": "_value",
          "type": "uint256"
        }
      ],
      "stateMutability": "view",
      "type": "function"
    },
    {
      "inputs": [
        {
          "internalType": "address",
          "name": "from",
          "type": "address"
        },
        {
          "internalType": "address",
          "name": "to",
          "type": "address"
        },
        {
          "internalType": "uint256[]",
          "name": "ids",
          "type": "uint256[]"
        },
        {
          "internalType": "uint256[]",
          "name": "amounts",
          "type": "uint256[]"
        },
        {
          "internalType": "bytes",
          "name": "data",
          "type": "bytes"
        }
      ],
      "name": "safeBatchTransferFrom",
      "outputs": [],
      "stateMutability": "nonpayable",
      "type": "function"
    },
    {
      "inputs": [
        {
          "internalType": "address",
          "name": "from",
          "type": "address"
        },
        {
          "internalType": "address",
          "name": "to",
          "type": "address"
        },
        {
          "internalType": "uint256",
          "name": "id",
          "type": "uint256"
        },
        {
          "internalType": "uint256",
          "name": "amount",
          "type": "uint256"
        },
        {
          "internalType": "bytes",
          "name": "data",
          "type": "bytes"
        }
      ],
      "name": "safeTransferFrom",
      "outputs": [],
      "stateMutability": "nonpayable",
      "type": "function"
    },
    {
      "inputs": [
        {
          "internalType": "address",
          "name": "operator",
          "type": "address"
        },
        {
          "internalType": "bool",
          "name": "approved",
          "type": "bool"
        }
      ],
      "name": "setApprovalForAll",
      "outputs": [],
      "stateMutability": "nonpayable",
      "type": "function"
    },
    {
      "inputs": [
        {
          "internalType": "uint256",
          "name": "",
          "type": "uint256"
        }
      ],
      "name": "sold",
      "outputs": [
        {
          "internalType": "uint256",
          "name": "",
          "type": "uint256"
        }
      ],
      "stateMutability": "view",
      "type": "function"
    },
    {
      "inputs": [
        {
          "internalType": "bytes4",
          "name": "interfaceId",
          "type": "bytes4"
        }
      ],
      "name": "supportsInterface",
      "outputs": [
        {
          "internalType": "bool",
          "name": "",
          "type": "bool"
        }
      ],
      "stateMutability": "view",
      "type": "function"
    },
    {
      "inputs": [
        {
          "internalType": "uint256",
          "name": "",
          "type": "uint256"
        }
      ],
      "name": "uri",
      "outputs": [
        {
          "internalType": "string",
          "name": "",
          "type": "string"
        }
      ],
      "stateMutability": "view",
      "type": "function"
    }
  ],
  "bytecode": "0x60806040523480156200001157600080fd5b506040518060200160405280600081525062000033816200003a60201b60201c565b506200016b565b80600290805190602001906200005292919062000056565b5050565b828054620000649062000106565b90600052602060002090601f016020900481019282620000885760008555620000d4565b82601f10620000a357805160ff1916838001178555620000d4565b82800160010185558215620000d4579182015b82811115620000d3578251825591602001919060010190620000b6565b5b509050620000e39190620000e7565b5090565b5b8082111562000102576000816000905550600101620000e8565b5090565b600060028204905060018216806200011f57607f821691505b602082108114156200013657620001356200013c565b5b50919050565b7f4e487b7100000000000000000000000000000000000000000000000000000000600052602260045260246000fd5b613de1806200017b6000396000f3fe6080604052600436106100f25760003560e01c80636d1884e01161008a578063a22cb46511610059578063a22cb46514610378578063c27a500d146103a1578063e985e9c5146103cc578063f242432a14610409576100f2565b80636d1884e0146102845780637feafd20146102c15780638d44d121146102fe5780639c03facb1461033b576100f2565b806326848f1a116100c657806326848f1a146101d7578063298ec208146102025780632eb2c2d61461021e5780634e1273f414610247576100f2565b8062fdd58e146100f757806301ffc9a7146101345780630e89341c14610171578063163f41af146101ae575b600080fd5b34801561010357600080fd5b5061011e600480360381019061011991906127ad565b610432565b60405161012b9190613314565b60405180910390f35b34801561014057600080fd5b5061015b60048036038101906101569190612855565b6104fb565b60405161016891906130ba565b60405180910390f35b34801561017d57600080fd5b506101986004803603810190610193919061290e565b6105dd565b6040516101a591906130d5565b60405180910390f35b3480156101ba57600080fd5b506101d560048036038101906101d091906128a7565b610671565b005b3480156101e357600080fd5b506101ec6108c6565b6040516101f99190613314565b60405180910390f35b61021c60048036038101906102179190612937565b6108d2565b005b34801561022a57600080fd5b5061024560048036038101906102409190612623565b610c95565b005b34801561025357600080fd5b5061026e600480360381019061026991906127e9565b610d36565b60405161027b9190613061565b60405180910390f35b34801561029057600080fd5b506102ab60048036038101906102a6919061290e565b610ee7565b6040516102b891906132f2565b60405180910390f35b3480156102cd57600080fd5b506102e860048036038101906102e3919061290e565b61101a565b6040516102f5919061301d565b60405180910390f35b34801561030a57600080fd5b506103256004803603810190610320919061290e565b6110f6565b6040516103329190613314565b60405180910390f35b34801561034757600080fd5b50610362600480360381019061035d919061290e565b61114d565b60405161036f9190613314565b60405180910390f35b34801561038457600080fd5b5061039f600480360381019061039a9190612771565b611165565b005b3480156103ad57600080fd5b506103b661117b565b6040516103c3919061303f565b60405180910390f35b3480156103d857600080fd5b506103f360048036038101906103ee91906125e7565b6112e0565b60405161040091906130ba565b60405180910390f35b34801561041557600080fd5b50610430600480360381019061042b91906126e2565b611374565b005b60008073ffffffffffffffffffffffffffffffffffffffff168373ffffffffffffffffffffffffffffffffffffffff1614156104a3576040517f08c379a000000000000000000000000000000000000000000000000000000000815260040161049a90613137565b60405180910390fd5b60008083815260200190815260200160002060008473ffffffffffffffffffffffffffffffffffffffff1673ffffffffffffffffffffffffffffffffffffffff16815260200190815260200160002054905092915050565b60007fd9b67a26000000000000000000000000000000000000000000000000000000007bffffffffffffffffffffffffffffffffffffffffffffffffffffffff1916827bffffffffffffffffffffffffffffffffffffffffffffffffffffffff191614806105c657507f0e89341c000000000000000000000000000000000000000000000000000000007bffffffffffffffffffffffffffffffffffffffffffffffffffffffff1916827bffffffffffffffffffffffffffffffffffffffffffffffffffffffff1916145b806105d657506105d582611415565b5b9050919050565b6060600280546105ec906136c5565b80601f0160208091040260200160405190810160405280929190818152602001828054610618906136c5565b80156106655780601f1061063a57610100808354040283529160200191610665565b820191906000526020600020905b81548152906001019060200180831161064857829003601f168201915b50505050509050919050565b61067b600361147f565b60006106876003611495565b905060006004600083815260200190815260200160002060000154146106e2576040517f08c379a00000000000000000000000000000000000000000000000000000000081526004016106d9906132b7565b60405180910390fd5b60006040518060a001604052808381526020018681526020018581526020018481526020013373ffffffffffffffffffffffffffffffffffffffff168152509050806004600084815260200190815260200160002060008201518160000155602082015181600101908051906020019061075d92919061229a565b50604082015181600201556060820151816003015560808201518160040160006101000a81548173ffffffffffffffffffffffffffffffffffffffff021916908373ffffffffffffffffffffffffffffffffffffffff1602179055509050506107d7338386604051806020016040528060008152506114a3565b600581908060018154018082558091505060019003906000526020600020906005020160009091909190915060008201518160000155602082015181600101908051906020019061082992919061229a565b50604082015181600201556060820151816003015560808201518160040160006101000a81548173ffffffffffffffffffffffffffffffffffffffff021916908373ffffffffffffffffffffffffffffffffffffffff1602179055505050817f5a5d0a2e57772300c856dd763cae7bad495ba5fdfc284931dc61b6c7e91a4c0e826040516108b791906132f2565b60405180910390a25050505050565b60038060000154905081565b6000600460008381526020019081526020016000206040518060a00160405290816000820154815260200160018201805461090c906136c5565b80601f0160208091040260200160405190810160405280929190818152602001828054610938906136c5565b80156109855780601f1061095a57610100808354040283529160200191610985565b820191906000526020600020905b81548152906001019060200180831161096857829003601f168201915b5050505050815260200160028201548152602001600382015481526020016004820160009054906101000a900473ffffffffffffffffffffffffffffffffffffffff1673ffffffffffffffffffffffffffffffffffffffff1673ffffffffffffffffffffffffffffffffffffffff16815250509050600060046000848152602001908152602001600020600001541415610a54576040517f08c379a0000000000000000000000000000000000000000000000000000000008152600401610a4b90613197565b60405180910390fd5b6000610a5f836110f6565b1415610aa0576040517f08c379a0000000000000000000000000000000000000000000000000000000008152600401610a9790613157565b60405180910390fd5b34838260600151610ab19190613581565b14610af1576040517f08c379a0000000000000000000000000000000000000000000000000000000008152600401610ae890613177565b60405180910390fd5b6000816080015190508073ffffffffffffffffffffffffffffffffffffffff166108fc349081150290604051600060405180830381858888f19350505050158015610b40573d6000803e3d6000fd5b50610b5d8133858760405180602001604052806000815250611654565b600060405180606001604052808581526020013373ffffffffffffffffffffffffffffffffffffffff168152602001868152509050600660008581526020019081526020016000208190806001815401808255809150506001900390600052602060002090600302016000909190919091506000820151816000015560208201518160010160006101000a81548173ffffffffffffffffffffffffffffffffffffffff021916908373ffffffffffffffffffffffffffffffffffffffff16021790555060408201518160020155505084600760008681526020019081526020016000206000828254610c4f919061352b565b92505081905550837f034130d921a5318b50c5c1f0f95fe851f6865fc396aa75f39e98c261965a488982604051610c8691906132d7565b60405180910390a25050505050565b610c9d6118f0565b73ffffffffffffffffffffffffffffffffffffffff168573ffffffffffffffffffffffffffffffffffffffff161480610ce35750610ce285610cdd6118f0565b6112e0565b5b610d22576040517f08c379a0000000000000000000000000000000000000000000000000000000008152600401610d19906131f7565b60405180910390fd5b610d2f85858585856118f8565b5050505050565b60608151835114610d7c576040517f08c379a0000000000000000000000000000000000000000000000000000000008152600401610d7390613257565b60405180910390fd5b6000835167ffffffffffffffff811115610dbf577f4e487b7100000000000000000000000000000000000000000000000000000000600052604160045260246000fd5b604051908082528060200260200182016040528015610ded5781602001602082028036833780820191505090505b50905060005b8451811015610edc57610e86858281518110610e38577f4e487b7100000000000000000000000000000000000000000000000000000000600052603260045260246000fd5b6020026020010151858381518110610e79577f4e487b7100000000000000000000000000000000000000000000000000000000600052603260045260246000fd5b6020026020010151610432565b828281518110610ebf577f4e487b7100000000000000000000000000000000000000000000000000000000600052603260045260246000fd5b60200260200101818152505080610ed590613728565b9050610df3565b508091505092915050565b610eef612320565b600460008381526020019081526020016000206040518060a001604052908160008201548152602001600182018054610f27906136c5565b80601f0160208091040260200160405190810160405280929190818152602001828054610f53906136c5565b8015610fa05780601f10610f7557610100808354040283529160200191610fa0565b820191906000526020600020905b815481529060010190602001808311610f8357829003601f168201915b5050505050815260200160028201548152602001600382015481526020016004820160009054906101000a900473ffffffffffffffffffffffffffffffffffffffff1673ffffffffffffffffffffffffffffffffffffffff1673ffffffffffffffffffffffffffffffffffffffff16815250509050919050565b606060066000838152602001908152602001600020805480602002602001604051908101604052809291908181526020016000905b828210156110eb5783829060005260206000209060030201604051806060016040529081600082015481526020016001820160009054906101000a900473ffffffffffffffffffffffffffffffffffffffff1673ffffffffffffffffffffffffffffffffffffffff1673ffffffffffffffffffffffffffffffffffffffff1681526020016002820154815250508152602001906001019061104f565b505050509050919050565b6000806007600084815260200190815260200160002054600460008581526020019081526020016000206002015461112e91906135db565b905060008111156111425780915050611148565b60009150505b919050565b60076020528060005260406000206000915090505481565b6111776111706118f0565b8383611c66565b5050565b60606005805480602002602001604051908101604052809291908181526020016000905b828210156112d757838290600052602060002090600502016040518060a0016040529081600082015481526020016001820180546111dc906136c5565b80601f0160208091040260200160405190810160405280929190818152602001828054611208906136c5565b80156112555780601f1061122a57610100808354040283529160200191611255565b820191906000526020600020905b81548152906001019060200180831161123857829003601f168201915b5050505050815260200160028201548152602001600382015481526020016004820160009054906101000a900473ffffffffffffffffffffffffffffffffffffffff1673ffffffffffffffffffffffffffffffffffffffff1673ffffffffffffffffffffffffffffffffffffffff16815250508152602001906001019061119f565b50505050905090565b6000600160008473ffffffffffffffffffffffffffffffffffffffff1673ffffffffffffffffffffffffffffffffffffffff16815260200190815260200160002060008373ffffffffffffffffffffffffffffffffffffffff1673ffffffffffffffffffffffffffffffffffffffff16815260200190815260200160002060009054906101000a900460ff16905092915050565b61137c6118f0565b73ffffffffffffffffffffffffffffffffffffffff168573ffffffffffffffffffffffffffffffffffffffff1614806113c257506113c1856113bc6118f0565b6112e0565b5b611401576040517f08c379a00000000000000000000000000000000000000000000000000000000081526004016113f8906131b7565b60405180910390fd5b61140e8585858585611654565b5050505050565b60007f01ffc9a7000000000000000000000000000000000000000000000000000000007bffffffffffffffffffffffffffffffffffffffffffffffffffffffff1916827bffffffffffffffffffffffffffffffffffffffffffffffffffffffff1916149050919050565b6001816000016000828254019250508190555050565b600081600001549050919050565b600073ffffffffffffffffffffffffffffffffffffffff168473ffffffffffffffffffffffffffffffffffffffff161415611513576040517f08c379a000000000000000000000000000000000000000000000000000000000815260040161150a90613297565b60405180910390fd5b600061151d6118f0565b9050600061152a85611dd3565b9050600061153785611dd3565b905061154883600089858589611e99565b8460008088815260200190815260200160002060008973ffffffffffffffffffffffffffffffffffffffff1673ffffffffffffffffffffffffffffffffffffffff16815260200190815260200160002060008282546115a7919061352b565b925050819055508673ffffffffffffffffffffffffffffffffffffffff16600073ffffffffffffffffffffffffffffffffffffffff168473ffffffffffffffffffffffffffffffffffffffff167fc3d58168c5ae7397731d063d5bbf3d657854427343f4c083240f7aacaa2d0f62898960405161162592919061332f565b60405180910390a461163c83600089858589611ea1565b61164b83600089898989611ea9565b50505050505050565b600073ffffffffffffffffffffffffffffffffffffffff168473ffffffffffffffffffffffffffffffffffffffff1614156116c4576040517f08c379a00000000000000000000000000000000000000000000000000000000081526004016116bb906131d7565b60405180910390fd5b60006116ce6118f0565b905060006116db85611dd3565b905060006116e885611dd3565b90506116f8838989858589611e99565b600080600088815260200190815260200160002060008a73ffffffffffffffffffffffffffffffffffffffff1673ffffffffffffffffffffffffffffffffffffffff1681526020019081526020016000205490508581101561178f576040517f08c379a000000000000000000000000000000000000000000000000000000000815260040161178690613217565b60405180910390fd5b85810360008089815260200190815260200160002060008b73ffffffffffffffffffffffffffffffffffffffff1673ffffffffffffffffffffffffffffffffffffffff168152602001908152602001600020819055508560008089815260200190815260200160002060008a73ffffffffffffffffffffffffffffffffffffffff1673ffffffffffffffffffffffffffffffffffffffff1681526020019081526020016000206000828254611844919061352b565b925050819055508773ffffffffffffffffffffffffffffffffffffffff168973ffffffffffffffffffffffffffffffffffffffff168573ffffffffffffffffffffffffffffffffffffffff167fc3d58168c5ae7397731d063d5bbf3d657854427343f4c083240f7aacaa2d0f628a8a6040516118c192919061332f565b60405180910390a46118d7848a8a86868a611ea1565b6118e5848a8a8a8a8a611ea9565b505050505050505050565b600033905090565b815183511461193c576040517f08c379a000000000000000000000000000000000000000000000000000000000815260040161193390613277565b60405180910390fd5b600073ffffffffffffffffffffffffffffffffffffffff168473ffffffffffffffffffffffffffffffffffffffff1614156119ac576040517f08c379a00000000000000000000000000000000000000000000000000000000081526004016119a3906131d7565b60405180910390fd5b60006119b66118f0565b90506119c6818787878787611e99565b60005b8451811015611bc3576000858281518110611a0d577f4e487b7100000000000000000000000000000000000000000000000000000000600052603260045260246000fd5b602002602001015190506000858381518110611a52577f4e487b7100000000000000000000000000000000000000000000000000000000600052603260045260246000fd5b60200260200101519050600080600084815260200190815260200160002060008b73ffffffffffffffffffffffffffffffffffffffff1673ffffffffffffffffffffffffffffffffffffffff16815260200190815260200160002054905081811015611af3576040517f08c379a0000000000000000000000000000000000000000000000000000000008152600401611aea90613217565b60405180910390fd5b81810360008085815260200190815260200160002060008c73ffffffffffffffffffffffffffffffffffffffff1673ffffffffffffffffffffffffffffffffffffffff168152602001908152602001600020819055508160008085815260200190815260200160002060008b73ffffffffffffffffffffffffffffffffffffffff1673ffffffffffffffffffffffffffffffffffffffff1681526020019081526020016000206000828254611ba8919061352b565b9250508190555050505080611bbc90613728565b90506119c9565b508473ffffffffffffffffffffffffffffffffffffffff168673ffffffffffffffffffffffffffffffffffffffff168273ffffffffffffffffffffffffffffffffffffffff167f4a39dc06d4c0dbc64b70af90fd698a233a518aa5d07e595d983b8c0526c8f7fb8787604051611c3a929190613083565b60405180910390a4611c50818787878787611ea1565b611c5e818787878787612090565b505050505050565b8173ffffffffffffffffffffffffffffffffffffffff168373ffffffffffffffffffffffffffffffffffffffff161415611cd5576040517f08c379a0000000000000000000000000000000000000000000000000000000008152600401611ccc90613237565b60405180910390fd5b80600160008573ffffffffffffffffffffffffffffffffffffffff1673ffffffffffffffffffffffffffffffffffffffff16815260200190815260200160002060008473ffffffffffffffffffffffffffffffffffffffff1673ffffffffffffffffffffffffffffffffffffffff16815260200190815260200160002060006101000a81548160ff0219169083151502179055508173ffffffffffffffffffffffffffffffffffffffff168373ffffffffffffffffffffffffffffffffffffffff167f17307eab39ab6107e8899845ad3d59bd9653f200f220920489ca2b5937696c3183604051611dc691906130ba565b60405180910390a3505050565b60606000600167ffffffffffffffff811115611e18577f4e487b7100000000000000000000000000000000000000000000000000000000600052604160045260246000fd5b604051908082528060200260200182016040528015611e465781602001602082028036833780820191505090505b5090508281600081518110611e84577f4e487b7100000000000000000000000000000000000000000000000000000000600052603260045260246000fd5b60200260200101818152505080915050919050565b505050505050565b505050505050565b611ec88473ffffffffffffffffffffffffffffffffffffffff16612277565b15612088578373ffffffffffffffffffffffffffffffffffffffff1663f23a6e6187878686866040518663ffffffff1660e01b8152600401611f0e959493929190612fc3565b602060405180830381600087803b158015611f2857600080fd5b505af1925050508015611f5957506040513d601f19601f82011682018060405250810190611f56919061287e565b60015b611fff57611f656137fe565b806308c379a01415611fc25750611f7a613cb9565b80611f855750611fc4565b806040517f08c379a0000000000000000000000000000000000000000000000000000000008152600401611fb991906130d5565b60405180910390fd5b505b6040517f08c379a0000000000000000000000000000000000000000000000000000000008152600401611ff6906130f7565b60405180910390fd5b63f23a6e6160e01b7bffffffffffffffffffffffffffffffffffffffffffffffffffffffff1916817bffffffffffffffffffffffffffffffffffffffffffffffffffffffff191614612086576040517f08c379a000000000000000000000000000000000000000000000000000000000815260040161207d90613117565b60405180910390fd5b505b505050505050565b6120af8473ffffffffffffffffffffffffffffffffffffffff16612277565b1561226f578373ffffffffffffffffffffffffffffffffffffffff1663bc197c8187878686866040518663ffffffff1660e01b81526004016120f5959493929190612f5b565b602060405180830381600087803b15801561210f57600080fd5b505af192505050801561214057506040513d601f19601f8201168201806040525081019061213d919061287e565b60015b6121e65761214c6137fe565b806308c379a014156121a95750612161613cb9565b8061216c57506121ab565b806040517f08c379a00000000000000000000000000000000000000000000000000000000081526004016121a091906130d5565b60405180910390fd5b505b6040517f08c379a00000000000000000000000000000000000000000000000000000000081526004016121dd906130f7565b60405180910390fd5b63bc197c8160e01b7bffffffffffffffffffffffffffffffffffffffffffffffffffffffff1916817bffffffffffffffffffffffffffffffffffffffffffffffffffffffff19161461226d576040517f08c379a000000000000000000000000000000000000000000000000000000000815260040161226490613117565b60405180910390fd5b505b505050505050565b6000808273ffffffffffffffffffffffffffffffffffffffff163b119050919050565b8280546122a6906136c5565b90600052602060002090601f0160209004810192826122c8576000855561230f565b82601f106122e157805160ff191683800117855561230f565b8280016001018555821561230f579182015b8281111561230e5782518255916020019190600101906122f3565b5b50905061231c9190612365565b5090565b6040518060a0016040528060008152602001606081526020016000815260200160008152602001600073ffffffffffffffffffffffffffffffffffffffff1681525090565b5b8082111561237e576000816000905550600101612366565b5090565b60006123956123908461337d565b613358565b905080838252602082019050828560208602820111156123b457600080fd5b60005b858110156123e457816123ca88826124d6565b8452602084019350602083019250506001810190506123b7565b5050509392505050565b60006124016123fc846133a9565b613358565b9050808382526020820190508285602086028201111561242057600080fd5b60005b85811015612450578161243688826125d2565b845260208401935060208301925050600181019050612423565b5050509392505050565b600061246d612468846133d5565b613358565b90508281526020810184848401111561248557600080fd5b612490848285613683565b509392505050565b60006124ab6124a684613406565b613358565b9050828152602081018484840111156124c357600080fd5b6124ce848285613683565b509392505050565b6000813590506124e581613d4f565b92915050565b600082601f8301126124fc57600080fd5b813561250c848260208601612382565b91505092915050565b600082601f83011261252657600080fd5b81356125368482602086016123ee565b91505092915050565b60008135905061254e81613d66565b92915050565b60008135905061256381613d7d565b92915050565b60008151905061257881613d7d565b92915050565b600082601f83011261258f57600080fd5b813561259f84826020860161245a565b91505092915050565b600082601f8301126125b957600080fd5b81356125c9848260208601612498565b91505092915050565b6000813590506125e181613d94565b92915050565b600080604083850312156125fa57600080fd5b6000612608858286016124d6565b9250506020612619858286016124d6565b9150509250929050565b600080600080600060a0868803121561263b57600080fd5b6000612649888289016124d6565b955050602061265a888289016124d6565b945050604086013567ffffffffffffffff81111561267757600080fd5b61268388828901612515565b935050606086013567ffffffffffffffff8111156126a057600080fd5b6126ac88828901612515565b925050608086013567ffffffffffffffff8111156126c957600080fd5b6126d58882890161257e565b9150509295509295909350565b600080600080600060a086880312156126fa57600080fd5b6000612708888289016124d6565b9550506020612719888289016124d6565b945050604061272a888289016125d2565b935050606061273b888289016125d2565b925050608086013567ffffffffffffffff81111561275857600080fd5b6127648882890161257e565b9150509295509295909350565b6000806040838503121561278457600080fd5b6000612792858286016124d6565b92505060206127a38582860161253f565b9150509250929050565b600080604083850312156127c057600080fd5b60006127ce858286016124d6565b92505060206127df858286016125d2565b9150509250929050565b600080604083850312156127fc57600080fd5b600083013567ffffffffffffffff81111561281657600080fd5b612822858286016124eb565b925050602083013567ffffffffffffffff81111561283f57600080fd5b61284b85828601612515565b9150509250929050565b60006020828403121561286757600080fd5b600061287584828501612554565b91505092915050565b60006020828403121561289057600080fd5b600061289e84828501612569565b91505092915050565b6000806000606084860312156128bc57600080fd5b600084013567ffffffffffffffff8111156128d657600080fd5b6128e2868287016125a8565b93505060206128f3868287016125d2565b9250506040612904868287016125d2565b9150509250925092565b60006020828403121561292057600080fd5b600061292e848285016125d2565b91505092915050565b6000806040838503121561294a57600080fd5b6000612958858286016125d2565b9250506020612969858286016125d2565b9150509250929050565b600061297f8383612dcd565b60608301905092915050565b60006129978383612e51565b905092915050565b60006129ab8383612f3d565b60208301905092915050565b6129c08161360f565b82525050565b6129cf8161360f565b82525050565b60006129e082613467565b6129ea81856134c5565b93506129f583613437565b8060005b83811015612a26578151612a0d8882612973565b9750612a188361349e565b9250506001810190506129f9565b5085935050505092915050565b6000612a3e82613472565b612a4881856134d6565b935083602082028501612a5a85613447565b8060005b85811015612a965784840389528151612a77858261298b565b9450612a82836134ab565b925060208a01995050600181019050612a5e565b50829750879550505050505092915050565b6000612ab38261347d565b612abd81856134e7565b9350612ac883613457565b8060005b83811015612af9578151612ae0888261299f565b9750612aeb836134b8565b925050600181019050612acc565b5085935050505092915050565b612b0f81613621565b82525050565b6000612b2082613488565b612b2a81856134f8565b9350612b3a818560208601613692565b612b4381613820565b840191505092915050565b6000612b5982613493565b612b638185613509565b9350612b73818560208601613692565b612b7c81613820565b840191505092915050565b6000612b9282613493565b612b9c818561351a565b9350612bac818560208601613692565b612bb581613820565b840191505092915050565b6000612bcd60348361351a565b9150612bd88261383e565b604082019050919050565b6000612bf060288361351a565b9150612bfb8261388d565b604082019050919050565b6000612c13602b8361351a565b9150612c1e826138dc565b604082019050919050565b6000612c36601d8361351a565b9150612c418261392b565b602082019050919050565b6000612c5960258361351a565b9150612c6482613954565b604082019050919050565b6000612c7c602e8361351a565b9150612c87826139a3565b604082019050919050565b6000612c9f60298361351a565b9150612caa826139f2565b604082019050919050565b6000612cc260258361351a565b9150612ccd82613a41565b604082019050919050565b6000612ce560328361351a565b9150612cf082613a90565b604082019050919050565b6000612d08602a8361351a565b9150612d1382613adf565b604082019050919050565b6000612d2b60298361351a565b9150612d3682613b2e565b604082019050919050565b6000612d4e60298361351a565b9150612d5982613b7d565b604082019050919050565b6000612d7160288361351a565b9150612d7c82613bcc565b604082019050919050565b6000612d9460218361351a565b9150612d9f82613c1b565b604082019050919050565b6000612db7602b8361351a565b9150612dc282613c6a565b604082019050919050565b606082016000820151612de36000850182612f3d565b506020820151612df660208501826129b7565b506040820151612e096040850182612f3d565b50505050565b606082016000820151612e256000850182612f3d565b506020820151612e3860208501826129b7565b506040820151612e4b6040850182612f3d565b50505050565b600060a083016000830151612e696000860182612f3d565b5060208301518482036020860152612e818282612b4e565b9150506040830151612e966040860182612f3d565b506060830151612ea96060860182612f3d565b506080830151612ebc60808601826129b7565b508091505092915050565b600060a083016000830151612edf6000860182612f3d565b5060208301518482036020860152612ef78282612b4e565b9150506040830151612f0c6040860182612f3d565b506060830151612f1f6060860182612f3d565b506080830151612f3260808601826129b7565b508091505092915050565b612f4681613679565b82525050565b612f5581613679565b82525050565b600060a082019050612f7060008301886129c6565b612f7d60208301876129c6565b8181036040830152612f8f8186612aa8565b90508181036060830152612fa38185612aa8565b90508181036080830152612fb78184612b15565b90509695505050505050565b600060a082019050612fd860008301886129c6565b612fe560208301876129c6565b612ff26040830186612f4c565b612fff6060830185612f4c565b81810360808301526130118184612b15565b90509695505050505050565b6000602082019050818103600083015261303781846129d5565b905092915050565b600060208201905081810360008301526130598184612a33565b905092915050565b6000602082019050818103600083015261307b8184612aa8565b905092915050565b6000604082019050818103600083015261309d8185612aa8565b905081810360208301526130b18184612aa8565b90509392505050565b60006020820190506130cf6000830184612b06565b92915050565b600060208201905081810360008301526130ef8184612b87565b905092915050565b6000602082019050818103600083015261311081612bc0565b9050919050565b6000602082019050818103600083015261313081612be3565b9050919050565b6000602082019050818103600083015261315081612c06565b9050919050565b6000602082019050818103600083015261317081612c29565b9050919050565b6000602082019050818103600083015261319081612c4c565b9050919050565b600060208201905081810360008301526131b081612c6f565b9050919050565b600060208201905081810360008301526131d081612c92565b9050919050565b600060208201905081810360008301526131f081612cb5565b9050919050565b6000602082019050818103600083015261321081612cd8565b9050919050565b6000602082019050818103600083015261323081612cfb565b9050919050565b6000602082019050818103600083015261325081612d1e565b9050919050565b6000602082019050818103600083015261327081612d41565b9050919050565b6000602082019050818103600083015261329081612d64565b9050919050565b600060208201905081810360008301526132b081612d87565b9050919050565b600060208201905081810360008301526132d081612daa565b9050919050565b60006060820190506132ec6000830184612e0f565b92915050565b6000602082019050818103600083015261330c8184612ec7565b905092915050565b60006020820190506133296000830184612f4c565b92915050565b60006040820190506133446000830185612f4c565b6133516020830184612f4c565b9392505050565b6000613362613373565b905061336e82826136f7565b919050565b6000604051905090565b600067ffffffffffffffff821115613398576133976137cf565b5b602082029050602081019050919050565b600067ffffffffffffffff8211156133c4576133c36137cf565b5b602082029050602081019050919050565b600067ffffffffffffffff8211156133f0576133ef6137cf565b5b6133f982613820565b9050602081019050919050565b600067ffffffffffffffff821115613421576134206137cf565b5b61342a82613820565b9050602081019050919050565b6000819050602082019050919050565b6000819050602082019050919050565b6000819050602082019050919050565b600081519050919050565b600081519050919050565b600081519050919050565b600081519050919050565b600081519050919050565b6000602082019050919050565b6000602082019050919050565b6000602082019050919050565b600082825260208201905092915050565b600082825260208201905092915050565b600082825260208201905092915050565b600082825260208201905092915050565b600082825260208201905092915050565b600082825260208201905092915050565b600061353682613679565b915061354183613679565b9250827fffffffffffffffffffffffffffffffffffffffffffffffffffffffffffffffff0382111561357657613575613771565b5b828201905092915050565b600061358c82613679565b915061359783613679565b9250817fffffffffffffffffffffffffffffffffffffffffffffffffffffffffffffffff04831182151516156135d0576135cf613771565b5b828202905092915050565b60006135e682613679565b91506135f183613679565b92508282101561360457613603613771565b5b828203905092915050565b600061361a82613659565b9050919050565b60008115159050919050565b60007fffffffff0000000000000000000000000000000000000000000000000000000082169050919050565b600073ffffffffffffffffffffffffffffffffffffffff82169050919050565b6000819050919050565b82818337600083830152505050565b60005b838110156136b0578082015181840152602081019050613695565b838111156136bf576000848401525b50505050565b600060028204905060018216806136dd57607f821691505b602082108114156136f1576136f06137a0565b5b50919050565b61370082613820565b810181811067ffffffffffffffff8211171561371f5761371e6137cf565b5b80604052505050565b600061373382613679565b91507fffffffffffffffffffffffffffffffffffffffffffffffffffffffffffffffff82141561376657613765613771565b5b600182019050919050565b7f4e487b7100000000000000000000000000000000000000000000000000000000600052601160045260246000fd5b7f4e487b7100000000000000000000000000000000000000000000000000000000600052602260045260246000fd5b7f4e487b7100000000000000000000000000000000000000000000000000000000600052604160045260246000fd5b600060033d111561381d5760046000803e61381a600051613831565b90505b90565b6000601f19601f8301169050919050565b60008160e01c9050919050565b7f455243313135353a207472616e7366657220746f206e6f6e204552433131353560008201527f526563656976657220696d706c656d656e746572000000000000000000000000602082015250565b7f455243313135353a204552433131353552656365697665722072656a6563746560008201527f6420746f6b656e73000000000000000000000000000000000000000000000000602082015250565b7f455243313135353a2062616c616e636520717565727920666f7220746865207a60008201527f65726f2061646472657373000000000000000000000000000000000000000000602082015250565b7f455243313135353a205469636b6574732061726520736f6c64206f7574000000600082015250565b7f455243313135353a20496e73756669656e742066756e6420746f20627579207460008201527f69636b6574000000000000000000000000000000000000000000000000000000602082015250565b7f455243313135353a206576656e74206973206e6f742061766169626c6520776960008201527f746820676976656e20746f6b656e000000000000000000000000000000000000602082015250565b7f455243313135353a2063616c6c6572206973206e6f74206f776e6572206e6f7260008201527f20617070726f7665640000000000000000000000000000000000000000000000602082015250565b7f455243313135353a207472616e7366657220746f20746865207a65726f20616460008201527f6472657373000000000000000000000000000000000000000000000000000000602082015250565b7f455243313135353a207472616e736665722063616c6c6572206973206e6f742060008201527f6f776e6572206e6f7220617070726f7665640000000000000000000000000000602082015250565b7f455243313135353a20696e73756666696369656e742062616c616e636520666f60008201527f72207472616e7366657200000000000000000000000000000000000000000000602082015250565b7f455243313135353a2073657474696e6720617070726f76616c2073746174757360008201527f20666f722073656c660000000000000000000000000000000000000000000000602082015250565b7f455243313135353a206163636f756e747320616e6420696473206c656e67746860008201527f206d69736d617463680000000000000000000000000000000000000000000000602082015250565b7f455243313135353a2069647320616e6420616d6f756e7473206c656e6774682060008201527f6d69736d61746368000000000000000000000000000000000000000000000000602082015250565b7f455243313135353a206d696e7420746f20746865207a65726f2061646472657360008201527f7300000000000000000000000000000000000000000000000000000000000000602082015250565b7f455243313135353a206576656e74416c7265616479204578697374207769746860008201527f207468697320746f6b656e000000000000000000000000000000000000000000602082015250565b600060443d1015613cc957613d4c565b613cd1613373565b60043d036004823e80513d602482011167ffffffffffffffff82111715613cf9575050613d4c565b808201805167ffffffffffffffff811115613d175750505050613d4c565b80602083010160043d038501811115613d34575050505050613d4c565b613d43826020018501866136f7565b82955050505050505b90565b613d588161360f565b8114613d6357600080fd5b50565b613d6f81613621565b8114613d7a57600080fd5b50565b613d868161362d565b8114613d9157600080fd5b50565b613d9d81613679565b8114613da857600080fd5b5056fea2646970667358221220869894878280aea04c6d46dcc7ae158e0ea367b6bb700037416c2f37ef31d88464736f6c63430008040033",
  "linkReferences": {},
  "deployedLinkReferences": {}
}